:020000040800F2
:1000000000000220A54A0008454900084D490008A3
:1000100051490008554900085949000800000000EE
:100020000000000000000000000000004979000806
:100030004949000800000000B97900085D4900083E
:10004000F54A0008F54A0008F54A0008F54A000894
:1000500000000000F54A0008F54A0008F54A0008CB
:10006000F54A0008F54A0008F54A0008F54A000874
:1000700075490008F54A000881490008F54A00085A
:100080008D49000899490008F54A0008F54A00081A
:10009000F54A0008F54A0008F54A0008F54A000844
:1000A000F54A0008F54A0008F54A0008F54A000834
:1000B000F54A0008F54A0008F54A0008F54A000824
:1000C000F54A0008F54A0008F54A0008F54A000814
:1000D000F54A0008C9490008D5490008E149000867
:1000E000F54A0008F54A0008F54A0008F54A0008F4
:1000F000F54A0008F54A0008F54A0008F54A0008E4
:10010000F54A0008F54A0008F54A0008F54A0008D3
:10011000F54A0008F54A0008F54A0008F54A0008C3
:10012000A5490008F54A0008B1490008F54A000849
:10013000F54A0008F54A0008F54A0008F54A0008A3
:10014000F54A0008F54A0008F54A0008F54A000893
:10015000F54A0008F54A0008BD490008F54A0008BC
:10016000F54A0008F54A0008F54A0008F54A000873
:10017000F54A0008F54A0008F54A0008F54A000863
:08018000F54A0008F54A0008E9
:1001C00010B5054C237833B9044B13B10448AFF391
:1001D00000800123237010BD3014002000000000B7
:1001E000D4E1000808B5034B1BB103490348AFF342
:1001F000008008BD0000000034140020D4E1000895
:1002000053B94AB9002908BF00281CBF4FF0FF317D
:100210004FF0FF3000F074B9ADF1080C6DE904CE79
:1002200000F006F8DDF804E0DDE9022304B07047D1
:100230002DE9F047089D04468E46002B4DD18A4299
:10024000944669D9B2FA82F252B101FA02F3C2F1CC
:10025000200120FA01F10CFA02FC41EA030E94405D
:100260004FEA1C48210CBEFBF8F61FFA8CF708FB7E
:1002700016E341EA034306FB07F199420AD91CEB56
:10028000030306F1FF3080F01F81994240F21C8188
:10029000023E63445B1AA4B2B3FBF8F008FB1033D0
:1002A00044EA034400FB07F7A7420AD91CEB040405
:1002B00000F1FF3380F00A81A74240F207816444D5
:1002C000023840EA0640E41B00261DB1D44000235A
:1002D000C5E900433146BDE8F0878B4209D9002DBE
:1002E00000F0EF800026C5E9000130463146BDE848
:1002F000F087B3FA83F6002E4AD18B4202D38242B2
:1003000000F2F980841A61EB030301209E46002D60
:10031000E0D0C5E9004EDDE702B9FFDEB2FA82F2B5
:10032000002A40F09280A1EB0C014FEA1C471FFA13
:100330008CFE0126200CB1FBF7F307FB131140EAFA
:1003400001410EFB03F0884208D91CEB010103F1C7
:10035000FF3802D2884200F2CB804346091AA4B289
:10036000B1FBF7F007FB101144EA01440EFB00FE5D
:10037000A64508D91CEB040400F1FF3102D2A645C2
:1003800000F2BB800846A4EB0E0440EA03409CE761
:10039000C6F12007B34022FA07FC4CEA030C20FA0E
:1003A00007F401FA06F31C43F9404FEA1C4900FA2E
:1003B00006F3B1FBF9F8200C1FFA8CFE09FB1811AB
:1003C00040EA014108FB0EF0884202FA06F20BD91E
:1003D0001CEB010108F1FF3A80F08880884240F26E
:1003E0008580A8F102086144091AA4B2B1FBF9F0B2
:1003F00009FB101144EA014100FB0EFE8E4508D9AD
:100400001CEB010100F1FF346CD28E456AD9023831
:10041000614440EA0840A0FB0294A1EB0E01A14216
:10042000C846A64656D353D05DB1B3EB080261EB84
:100430000E0101FA07F722FA06F3F1401F43C5E95E
:10044000007100263146BDE8F087C2F12003D84094
:100450000CFA02FC21FA03F3914001434FEA1C47D6
:100460001FFA8CFEB3FBF7F007FB10360B0C43EAC8
:10047000064300FB0EF69E4204FA02F408D91CEB78
:10048000030300F1FF382FD29E422DD90238634476
:100490009B1B89B2B3FBF7F607FB163341EA034116
:1004A00006FB0EF38B4208D91CEB010106F1FF3865
:1004B00016D28B4214D9023E6144C91A46EA00465C
:1004C00038E72E46284605E70646E3E61846F8E6EE
:1004D0004B45A9D2B9EB020864EB0C0E0138A3E737
:1004E0004646EAE7204694E74046D1E7D0467BE718
:1004F000023B614432E7304609E76444023842E790
:10050000704700BF844641EA000313F003036DD136
:10051000403A41D351F8043B40F8043B51F8043BC6
:1005200040F8043B51F8043B40F8043B51F8043BCD
:1005300040F8043B51F8043B40F8043B51F8043BBD
:1005400040F8043B51F8043B40F8043B51F8043BAD
:1005500040F8043B51F8043B40F8043B51F8043B9D
:1005600040F8043B51F8043B40F8043B51F8043B8D
:1005700040F8043B51F8043B40F8043B51F8043B7D
:1005800040F8043B51F8043B40F8043B51F8043B6D
:1005900040F8043B403ABDD2303211D351F8043B0D
:1005A00040F8043B51F8043B40F8043B51F8043B4D
:1005B00040F8043B51F8043B40F8043B103AEDD2BC
:1005C0000C3205D351F8043B40F8043B043AF9D20D
:1005D000043208D0D2071CBF11F8013B00F8013BE0
:1005E00001D30B8803806046704700BF082A13D3ED
:1005F0008B078DD010F003038AD0C3F10403D21A05
:10060000DB071CBF11F8013B00F8013B80D331F838
:10061000023B20F8023B7BE7043AD9D3013A11F8B8
:10062000013B00F8013BF9D20B7803704B78437023
:100630008B78837060467047000000000000000067
:10064000A2EB0300704700BF02780B78012A28BF95
:100650009A42F5D16DE9044540EA0104CDE902670B
:100660006FF0000C4FEA447212B380EA010414F0F8
:10067000070F6AD100F0070420F0070004F003051B
:1006800021F007014FEAC505F0E8042314F0040F38
:10069000F1E804670CFA05F462EA040266EA04066B
:1006A0000AD063EA0403624667EA0407664603E089
:1006B000F0E80423F1E8046782FA4CF582EA0604C4
:1006C000A4FA8CF46CBB83FA4CF583EA0705A5FA0F
:1006D0008CF595B950E9022351E9026782FA4CF58D
:1006E00082EA0604A4FA8CF483FA4CF583EA07053F
:1006F000A5FA8CF52543DBD09CB92DBAB5FA85F463
:1007000024F0070427FA04F1DDE9026723FA04F371
:1007100003F0FF0001F0FF01FDE80445A0EB01003C
:10072000704724BAB4FA84F424F0070426FA04F1DA
:10073000DDE9026722FA04F202F0FF0001F0FF0196
:10074000FDE80445A0EB0100704714F0030F3CD115
:1007500010F0030428D150F8082B51F8083B82FA16
:100760004CF582EA0305A5FA8CF55DB950F8042C26
:1007700051F8043C82FA4CF582EA0305A5FA8CF59F
:10078000002DE8D02DBAB5FA85F424F0070423FA39
:1007900004F122FA04F202F0FF0001F0FF01FDE88B
:1007A0000445A0EB010070474FEAC40420F00300A9
:1007B00050F8082B21F0030151F8083B0CFA04F41F
:1007C00062EA040263EA0403C9E710F003041AD0E2
:1007D000A1EB040120F00300E40750F8042B06D03D
:1007E0000FD28B785FFAA2F4E41A06D12BB1CB7842
:1007F0005FFAB2F4E41A00D11BB920465DF8104B41
:10080000704701F1040150F8042BCC0721F00301DB
:1008100051F8043B48D824D222F07F4482FA4CF5A8
:1008200094EA1325A5FA8CF50AD165B951F8043B71
:1008300084EA0204B4EB036F0ED150F8042BEBE70B
:100840004FEA132355E035F07F454DD10878FDE898
:100850000445C0F1000070474FEA126203F0FF0345
:1008600047E002EA1C4482FA4CF594EA1345A5FAE3
:100870008CF50AD165B951F8043B84EA0204B4EB63
:10088000034F0CD150F8042BEBE74FEA134330E051
:1008900015EA1C4528D10B884FEA124229E04FEA9D
:1008A000124203EA1C4324E002F0FF0482FA4CF5F2
:1008B00094EA1365A5FA8CF50AD165B951F8043BA1
:1008C00084EA0204B4EB032F09D150F8042BEBE7C0
:1008D0004FEA13630DE015F0FF0F05D10B684FEAE7
:1008E000122223F07F4304E04FF00000FDE80445AE
:1008F000704712BA1BBA82FA4CF482EA0304A4FAD3
:100900008CF5B5FA85F402FA04F203FA04F34FEA1F
:100910001260FDE80445A0EB136070470000000082
:1009200000000000000000000000000000000000C7
:1009300000000000000000000000000000000000B7
:1009400090F800F06DE9024520F007016FF0000C0F
:1009500010F0070491F820F040F049804FF00004B7
:100960006FF00700D1E9002391F840F000F1080092
:1009700082FA4CF2A4FA8CF283FA4CF3A2FA8CF3CA
:100980004BBBD1E9022382FA4CF200F10800A4FA31
:100990008CF283FA4CF3A2FA8CF3E3B9D1E9042385
:1009A00082FA4CF200F10800A4FA8CF283FA4CF3BC
:1009B000A2FA8CF37BB9D1E9062301F1200182FA76
:1009C0004CF200F10800A4FA8CF283FA4CF3A2FA7C
:1009D0008CF3002BC6D0002A04BF04301A4612BA8A
:1009E000B2FA82F2FDE8024500EBD2007047D1E98D
:1009F000002304F00305C4F100004FEAC50514F01C
:100A0000040F91F840F00CFA05F562EA05021CBFEC
:100A100063EA050362464FF00004A9E70000000006
:100A200001F0FF01102A2BDB10F0070F08D010F89F
:100A3000013B013A8B422DD010F0070F42B3F6D1A3
:100A4000F0B441EA012141EA014122F007047FF0BC
:100A500000070023F0E80256083C85EA010586EA13
:100A6000010685FA47F5A3FA87F586FA47F6A5FA4F
:100A700087F68EB9EED1F0BC01F0FF0102F007025B
:100A800032B110F8013B013A83EA010313B1F8D106
:100A90000020704701387047002D06BF35460338E7
:100AA000073815F0010F07D1013015F4807F02BF20
:100AB000013015F4C03F0130F0BC0138704700BF71
:100AC00081F0004102E000BF83F0004330B54FEAFF
:100AD00041044FEA430594EA050F08BF90EA020F6C
:100AE0001FBF54EA000C55EA020C7FEA645C7FEAFF
:100AF000655C00F0E2804FEA5454D4EB5555B8BF22
:100B00006D420CDD2C4480EA020281EA030382EA92
:100B1000000083EA010180EA020281EA0303362D24
:100B200088BF30BD11F0004F4FEA01314FF4801CF7
:100B30004CEA113102D0404261EB410113F0004F09
:100B40004FEA03334CEA133302D0524263EB4303C0
:100B500094EA050F00F0A780A4F10104D5F1200E5E
:100B60000DDB02FA0EFC22FA05F2801841F10001B9
:100B700003FA0EF2801843FA05F359410EE0A5F18D
:100B800020050EF1200E012A03FA0EFC28BF4CF0BE
:100B9000020C43FA05F3C01851EBE37101F0004574
:100BA00007D54FF0000EDCF1000C7EEB00006EEB81
:100BB0000101B1F5801F1BD3B1F5001F0CD349080B
:100BC0005FEA30004FEA3C0C04F101044FEA445262
:100BD00012F5800F80F09A80BCF1004F08BF5FEAE9
:100BE000500C50F1000041EB045141EA050130BDC9
:100BF0005FEA4C0C404141EB0101013C28BFB1F5DB
:100C0000801FE9D291F0000F04BF01460020B1FA25
:100C100081F308BF2033A3F10B03B3F120020CDAF8
:100C20000C3208DD02F1140CC2F10C0201FA0CF0D6
:100C300021FA02F10CE002F11402D8BFC2F1200C3B
:100C400001FA02F120FA0CFCDCBF41EA0C019040F1
:100C5000E41AA2BF01EB0451294330BD6FEA04043A
:100C60001F3C1CDA0C340EDC04F11404C4F1200225
:100C700020FA04F001FA02F340EA030021FA04F337
:100C800045EA030130BDC4F10C04C4F1200220FA8E
:100C900002F001FA04F340EA0300294630BD21FACC
:100CA00004F0294630BD94F0000F83F4801306BF92
:100CB00081F480110134013D4EE77FEA645C18BF86
:100CC0007FEA655C29D094EA050F08BF90EA020F1D
:100CD00005D054EA000C04BF1946104630BD91EA15
:100CE000030F1EBF0021002030BD5FEA545C05D118
:100CF0004000494128BF41F0004130BD14F5800457
:100D00003CBF01F5801130BD01F0004545F0FE41CA
:100D100041F470014FF0000030BD7FEA645C1ABFFF
:100D2000194610467FEA655C1CBF0B46024650EA36
:100D3000013406BF52EA033591EA030F41F4002162
:100D400030BD00BF90F0000F04BF0021704730B5E8
:100D50004FF4806404F132044FF000054FF00001BD
:100D600050E700BF90F0000F04BF0021704730B57E
:100D70004FF4806404F1320410F0004548BF404253
:100D80004FF000013EE700BF42004FEAE2014FEAA8
:100D900031014FEA02701FBF12F07F4393F07F4F83
:100DA00081F06051704732F07F4208BF704793F086
:100DB0007F4F04BF41F40021704730B54FF4607499
:100DC00001F0004521F000411CE700BF50EA01029C
:100DD00008BF704730B54FF000050AE050EA010245
:100DE00008BF704730B511F0004502D5404261EBB5
:100DF00041014FF4806404F132045FEA915C3FF4F6
:100E0000D8AE4FF003025FEADC0C18BF03325FEA92
:100E1000DC0C18BF033202EBDC02C2F1200300FA43
:100E200003FC20FA02F001FA03FE40EA0E0021FA68
:100E300002F11444BDE600BF70B54FF0FF0C4CF456
:100E4000E06C1CEA11541DBF1CEA135594EA0C0F08
:100E500095EA0C0F00F0DEF82C4481EA030621EA43
:100E60004C5123EA4C5350EA013518BF52EA03357E
:100E700041F4801143F4801338D0A0FB02CE4FF030
:100E80000005E1FB02E506F00042E0FB03E54FF060
:100E90000006E1FB03569CF0000F18BF4EF0010E58
:100EA000A4F1FF04B6F5007F64F5407404D25FEA54
:100EB0004E0E6D4146EB060642EAC62141EA555107
:100EC0004FEAC52040EA5E504FEACE2EB4F1FD0C49
:100ED00088BFBCF5E06F1ED8BEF1004F08BF5FEAC7
:100EE000500E50F1000041EB045170BD06F0004679
:100EF00046EA010140EA020081EA0301B4EB5C0426
:100F0000C2BFD4EB0C0541EA045170BD41F480111D
:100F10004FF0000E013C00F3AB8014F1360FDEBF42
:100F2000002001F0004170BDC4F10004203C35DA1E
:100F30000C341BDC04F11404C4F1200500FA05F3A1
:100F400020FA04F001FA05F240EA020001F0004242
:100F500021F0004110EBD37021FA04F642EB0601B8
:100F60005EEA430E08BF20EAD37070BDC4F10C04E2
:100F7000C4F1200500FA04F320FA05F001FA04F2A6
:100F800040EA020001F0004110EBD37041F1000192
:100F90005EEA430E08BF20EAD37070BDC4F120059D
:100FA00000FA05F24EEA020E20FA04F301FA05F205
:100FB00043EA020321FA04F001F0004121FA04F2AD
:100FC00020EA020000EBD3705EEA430E08BF20EA7D
:100FD000D37070BD94F0000F0FD101F000464000B7
:100FE00041EB010111F4801F08BF013CF7D041EA39
:100FF000060195F0000F18BF704703F0004652003D
:1010000043EB030313F4801F08BF013DF7D043EA0D
:101010000603704794EA0C0F0CEA135518BF95EAC3
:101020000C0F0CD050EA410618BF52EA4306D1D14A
:1010300081EA030101F000414FF0000070BD50EA69
:10104000410606BF1046194652EA430619D094EAF3
:101050000C0F02D150EA013613D195EA0C0F05D1DD
:1010600052EA03361CBF104619460AD181EA030131
:1010700001F0004141F0FE4141F470014FF00000E9
:1010800070BD41F0FE4141F4780170BD70B54FF084
:10109000FF0C4CF4E06C1CEA11541DBF1CEA135504
:1010A00094EA0C0F95EA0C0F00F0A7F8A4EB0504E6
:1010B00081EA030E52EA03354FEA013100F08880DD
:1010C0004FEA03334FF0805545EA131343EA1263A6
:1010D0004FEA022245EA111545EA10654FEA00265B
:1010E0000EF000419D4208BF964244F1FD0404F514
:1010F000407402D25B084FEA3202B61A65EB030570
:101100005B084FEA32024FF480104FF4002CB6EB2C
:10111000020E75EB030E22BFB61A754640EA0C00AC
:101120005B084FEA3202B6EB020E75EB030E22BFEC
:10113000B61A754640EA5C005B084FEA3202B6EB2D
:10114000020E75EB030E22BFB61A754640EA9C00EC
:101150005B084FEA3202B6EB020E75EB030E22BFBC
:10116000B61A754640EADC0055EA060E18D04FEA7A
:10117000051545EA16754FEA06164FEAC30343EA1A
:1011800052734FEAC2025FEA1C1CC0D111F4801FE7
:101190000BD141EA00014FF000004FF0004CB6E7E0
:1011A00011F4801F04BF01430020B4F1FD0C88BF7F
:1011B000BCF5E06F3FF6AFAEB5EB030C04BFB6EB8A
:1011C000020C5FEA500C50F1000041EB045170BD7D
:1011D0000EF0004E4EEA113114EB5C04C2BFD4EBAA
:1011E0000C0541EA045170BD41F480114FF0000E2E
:1011F000013C90E645EA060E8DE60CEA135594EAAA
:101200000C0F08BF95EA0C0F3FF43BAF94EA0C0FAC
:101210000AD150EA01347FF434AF95EA0C0F7FF421
:1012200025AF104619462CE795EA0C0F06D152EA75
:1012300003353FF4FDAE1046194622E750EA410659
:1012400018BF52EA43067FF4C5AE50EA41047FF46A
:101250000DAF52EA43057FF4EBAE12E74FF0FF3CCF
:1012600006E000BF4FF0010C02E000BF4FF0010CA0
:101270004DF804CD4FEA410C7FEA6C5C4FEA430C19
:1012800018BF7FEA6C5C1BD001B050EA410C0CBF68
:1012900052EA430C91EA030F02BF90EA020F0020CA
:1012A000704710F1000F91EA030F58BF994208BF31
:1012B00090422CBFD8176FEAE37040F001007047EE
:1012C0004FEA410C7FEA6C5C02D150EA013C07D145
:1012D0004FEA430C7FEA6C5CD6D152EA033CD3D090
:1012E0005DF8040B704700BF8446104662468C468A
:1012F0001946634600E000BF01B5FFF7B7FF0028BD
:1013000048BF10F1000F01BD4DF808EDFFF7F4FFE5
:101310000CBF012000205DF808FB00BF4DF808ED70
:10132000FFF7EAFF34BF012000205DF808FB00BF93
:101330004DF808EDFFF7E0FF94BF012000205DF8B5
:1013400008FB00BF4DF808EDFFF7CEFF94BF01206A
:1013500000205DF808FB00BF4DF808EDFFF7C4FF63
:1013600034BF012000205DF808FB00BF4FEA410CAC
:101370007FEA6C5C02D150EA013C0AD14FEA430C8F
:101380007FEA6C5C02D152EA033C02D14FF00000CC
:1013900070474FF0010070474FEA410212F500120A
:1013A00015D211D56FF47873B3EB625212D94FEAAC
:1013B000C12343F0004343EA505311F0004F23FA96
:1013C00002F018BF404270474FF00000704750EAEB
:1013D000013005D111F0004008BF6FF000407047A8
:1013E0004FF00000704700BF08B500F097FFFEE720
:1013F00070B54E4CA278A169237886B022440025AE
:10140000D278049194F86E10009501958DF8012022
:101410008DF80410627805954FF46071CDE902559E
:101420008DF800308DF80320ADF8141053B1042B63
:1014300032D0052B48D0062B3CD0002A50D10123B6
:101440008DF8023094F850302BB139491822684693
:1014500006F0D4FCC0B1684601F02AF8B0B1EC4601
:10146000BCE80F00324D94F86E600FC59CE8030095
:101470004FF0010E85E8030084F850E026B1002308
:1014800084F86E3084F86DE006B070BD84F85100C9
:1014900084F8520006B070BD22696369322101FBF5
:1014A00002F2029201FB03F340F201120493ADF841
:1014B0000220C7E723691F4A0492CDE9023540F2B2
:1014C0000113ADF80230BDE71A4A04924FF4FA70E6
:1014D000002140F20113CDE90201ADF80230B1E77D
:1014E000A06801F039F894F86F307BB1626F6AB18F
:1014F000114E2B464FEA520CA0FB060506FB01518C
:1015000010EB0C0041F10001FEF77AFEE3681818B9
:1015100041EBE373012873F10002BCBF01200023FB
:101520000122CDE902038DF802208BE700000020A4
:101530003800002020A1070040787D0138B5104C0C
:1015400094F86C30D3B994F85930BBB994F8615021
:10155000A5B90C4A656540F201114FF00113A4F8DA
:101560005850A4F862502180A260E36684F870505D
:10157000656703F00BFB84F85050A06738BD00BFCF
:1015800000000020A086010038B5431E022B09D8B8
:101590000E4D95F859302BB995F86C3013B995F874
:1015A000613003B138BD4FF480720446EB606B6567
:1015B000A5F8582003F0EAFA0346EB65204685F8C3
:1015C0006040BDE8384001F0A7BA00BF000000202D
:1015D0002DE9F04FCBB005F0B7FC1090FFF708FFF6
:1015E000414CDFF808A1DFF80881DFF808910025F9
:1015F00014A800F00BFF20B19DF85030042B00F030
:101600000085002384F8513084F8523001F050FBFB
:10161000064601F081FC94F859300746002B40F053
:101620007E8494F86130002B40F0688494F884B094
:10163000BBF1000F40F04384F00700F1B584B1071F
:1016400000F14A85720704D594F86C30002B00F045
:10165000D484330740F1B78394F85930002B00F05D
:10166000AF83A7F13003122B14D8DFE813F0520335
:10167000100310031003F902F902F902130013001A
:1016800013001300130013001300130013001300C2
:1016900075037B0394F86C30002B40F0218326F017
:1016A0000806B6B2002E40F0E58211A800F0EAFF6D
:1016B000002835D09DF84430013B102B00F21D86E8
:1016C000DFE813F061025B025202B202A1022502BE
:1016D000160245023102BB02FF01EB01DA01A00153
:1016E000820175011A0000BF00000020DCE4000840
:1016F000F4E4000880841E00129B5A1E022A04D8BB
:1017000094F86020934200F00285C14801F0F2F99C
:10171000002311A884F8503000F0B4FF0028C9D18C
:1017200094F87C300646002B40F006840135EDB27B
:10173000FFF75EFE092D40F2358194F8513094F8A0
:101740008450002B14BF4FF4FC664FF47846002DF4
:1017500040F00B84237803F0FD02042A00F0038498
:10176000052B04D06378002B00F07885A56894F8E9
:10177000587007B1656D002002F02EFB4FF01F0B73
:1017800000210846CDF800B00E23A02202F030FB65
:10179000A04ACDF800B04FF6FF730221042002F0FA
:1017A00037FB00209C4A009040F2FF73142102F0A6
:1017B0002FFB2378013BDBB2052B4FF0000B94BFCE
:1017C0005AF82320954ACDF800B04FF6FF73142144
:1017D000302002F01DFB6378002B40F089844FF02D
:1017E000000B8F4ACDF800B040F2FF732421584619
:1017F00002F00EFBA378CDF800B018F803202421E6
:101800004FF6FF73302002F015FB864ACDF800B08A
:1018100040F2FF732421502002F0FAFAA378CDF8A9
:1018200000B023442421DA7878204FF6FF7302F0C9
:1018300001FB7D4ACDF800B040F2FF7334215846D9
:1018400002F0E6FACDF800B02A464FF6FF733421D5
:10185000302002F0EFFA002F00F09383734ACDF8A6
:1018600000B04FF6E0733421642002F0D1FA704AE0
:10187000704FDFF800B2002548F210433421782081
:10188000009502F0C5FA6C4A009540F2FF734421BE
:10189000284602F0BDFA637F0095AB420BBF4FF4C0
:1018A00078434FF4FC633A465A464421302002F014
:1018B000AFFA624A009540F2FF734421582002F0CB
:1018C000A7FAA37F0095AB4215BF4FF478434FF4BE
:1018D000FC635A463A464421782002F099FA236E76
:1018E00033F0FF0340F0D183E36E23F47F0323F44E
:1018F0007F4323B994F87050002D00F083840020BA
:1019000040F2FF734E4A0090542102F081FA94F89D
:101910006C30002B40F0F78394F86F30494A002B6D
:10192000494B0EBF4FF478431A464FF4FC63002531
:1019300000955421282002F06BFA94F86F30002BA8
:1019400040F01D840025414A009540F2FF73642158
:10195000284602F05DFA94F851003D493D4A009551
:10196000A84208BF0A4633466421302002F050FAEC
:1019700094F852303849394A0095AB4208BF0A46BC
:101980004FF6E0734FF0640118BF4FF4FC63702012
:1019900002F03EFA324A009548F21043742128467C
:1019A00002F036FA142110A805F006FA20E694F8A1
:1019B00061302BB194F86430129A9A4200F0BD83E2
:1019C000284801F097F8A3E6129B40F24C4293425C
:1019D00000F049834CF2EC22934200F04483224A07
:1019E000934200F04083002B40F038836365A4F8F5
:1019F0005830238084F85030FFF7FAFC1B4801F080
:101A000079F885E600231A48238001F073F87FE611
:101A100004E4000824E4000834E40008F0E10008CD
:101A200044E400084CE4000854E40008A0E4000882
:101A3000F8E1000800E200085CE4000864E4000843
:101A400070E4000808E2000814E2000880E40008DE
:101A500020E2000818E2000828E2000810E200086E
:101A600088E40008E4E3000814630100B8E3000818
:101A7000C0E2000804E2000840F2051323800A20B7
:101A800042F21073C4E90403002384F85030FFF7D6
:101A9000AFFCB84801F02EF83AE6129B212B00F279
:101AA0006682236142F210736361002384F8503030
:101AB0004FF483732380FFF79BFCAF4801F01AF8C3
:101AC00026E6DDE91223002B40F0D08140F2FE63D0
:101AD000A2F10A01994200F2E28142F21073C4E9D4
:101AE0000423A6484FF48273238001F003F80FE625
:101AF000129A02F5742303F510734B4503D86378EB
:101B0000002B40F02E839E4800F0F4FF00E6129B6D
:101B10009C4AA3F57A71914296BF9B489B48A3606B
:101B200000F0E8FFF4E51299994B994200F2248203
:101B30000026984A00233046FEF762FB84F8506086
:101B4000A061FFF755FC944800F0D4FFE0E512983F
:101B500000F01EFD0023A06184F85030FFF748FC20
:101B60008E4800F0C7FFD3E59DF8453023708C48C0
:101B70000023637000F0BEFFCAE50123894823807B
:101B800000F0B8FFC4E5237803F0FD02042A00F05A
:101B9000E281052B00F009836078002800F056836D
:101BA000A2682169013BDBB2052B40F2D8817E4B54
:101BB0000090CDE90221A27818F802200192227F3C
:101BC0000E92626F0D9294F86F200C92E27F0B924E
:101BD00094F851200A9294F852200992A27F089218
:101BE00094F83120079294F830200692627F059293
:101BF00062690492C0216D4A1AA806F083F91AA8F6
:101C000000F078FF84E5129B022B00F04683042B42
:101C100000F04C83062B00F04D83082B00F04C8322
:101C2000634800F067FF73E59DF845302370614815
:101C30000123637000F05EFF6AE5129B022B00F047
:101C40003281042B00F03083062B00F03183082B07
:101C500008BF032100F02881574800F04BFF57E5EB
:101C6000A7F13300C0B2FFF78FFC94F86CB0BBF162
:101C7000000F35D1012000F0E9FF0F2005F0DEF85C
:101C8000002000F0E3FF002384F850300DE594F8C5
:101C90006120002A60D194F8592094F86CB0002A91
:101CA0005CD1BBF1000F1BD1DFB20123238084F88C
:101CB0006130424BC4F854B084F858B0A4F862B014
:101CC000A36184F8647002F061FFA066384684F86E
:101CD00050B000F03DFF94F86CB0BBF1000FC9D0DC
:101CE00002F054FFA36FC01A40F6B733984207D9E9
:101CF000002384F86C3084F86E30012384F870304F
:101D000026F00806B6B2002EB4D1BBF1000FB1D157
:101D1000CBE494F88430FBB994F8593094F86CB063
:101D2000E3B9BBF1000FDBD194F86130002BA1D1F6
:101D3000237884F88530637884F886300123584608
:101D400084F8843040F2051384F850B0238002F008
:101D500043F8584601F094FC94F86CB0BBF1000FC6
:101D600088D0BDE7FFF7EAFB94F86CB0BBF1000F39
:101D700080D0B5E7ACE3000894E300087CE30008FA
:101D800058E30008B88201000CE3000818E30008DB
:101D90003F7E0500407E050030E3000824E3000894
:101DA000DCE20008CCE20008F0E1000830E20008C4
:101DB000F4E20008E8E2000870E30008499FF40933
:101DC0000120FFF7E1FBA7F13003122B3FF662ACD5
:101DD00001A252F823F000BF131D00088F1C000859
:101DE0008F1C00088F1C0008611C0008611C000883
:101DF000611C000895160008951600089516000845
:101E00009516000895160008951600089516000806
:101E1000951600089516000895160008251E00085E
:101E2000651D000894F85930002B95D194F86CB0DA
:101E3000BBF1000F7FF454AF94F86130002B7FF4B6
:101E400019AF2378013B022B84BF01232370A378B1
:101E5000013303F00303A37000236370636584F808
:101E60005830A4F8623084F8503003E740F2FE6145
:101E7000A2F10A00884212D8A3F1C80042F24861D8
:101E800088420CD8A1F17551A1F54311C848A1F6BB
:101E90001F2101FB03F1B0EBF10F80F0F681C54883
:101EA00000F028FE34E40021139B5A1E7E2A3FF6E0
:101EB000D3AE2144C048CB7000F01CFE28E4442F70
:101EC0007FF4F3AB002694F885302370304694F805
:101ED0008630637084F8846084F8506001F07CFF81
:101EE000012001F0CDFB012000F0B0FE0F2004F036
:101EF000A5FF304600F0AAFEFFF7D7BB02F046FE72
:101F0000A36EC01A43F6972398427FF68FAB002347
:101F100084F86130012384F86330FFF787BB02F057
:101F200035FEE36DC01A42F6DF63984284BF00239A
:101F300084F85930FFF775BB02F028FED4F88030E2
:101F4000C01A77287FF6F2AB304600F07FFE84F8A7
:101F50007C60FFF7EBBB22691146013BDBB25AF80C
:101F60002330607824E6256901E400251AE59348CA
:101F700000F0C0FDFFF7CCBB914800F0BBFDFFF7C0
:101F8000C7BB904A00974FF6E0733421642001F0FC
:101F90003FFF23781A1F012A40F2EE808A4A8B49BC
:101FA000062B18BF0A4663E494F85930002B7FF4DF
:101FB00049AB94F86C30002B40F0598194F86130B3
:101FC0004BB90123C4F854B084F858B0A4F862B0F7
:101FD00084F850B02380B3077FF534AB94F86130B8
:101FE00043B9636584F85830A4F8623084F85030FF
:101FF0000223238071077FF52CABFFF79FFAFFF7D1
:1020000028BB9DF8533084F8523014AF0FCF704E78
:1020100094F86CC00FC697E803004FF0010B86E8F8
:10202000030084F851B0BCF1000F07D094F86D3074
:1020300023B19DF85530002B40F0408194F850308A
:10204000002B3FF4E3AABDF86620238F9A4200F0EC
:102050001381002384F85030FFF7D8BA5D4800F0B0
:1020600049FDFFF755BB6365A360002384F850303A
:102070000123A4F8583040F201132380FFF7B8F988
:10208000554800F037FDFFF743BB544A009540F236
:10209000FF735421284601F0BBFE4FF6FF7394F8FE
:1020A000642000955421282001F0C4FE94F861308A
:1020B000002B76D194F86230494AAB42494B0EBFAF
:1020C0004FF478431A464FF4FC6300210091382006
:1020D000542101F09DFE35E494F85930002B7FF433
:1020E000B1AA94F86C30002B3FF478AFFFF7B1BA87
:1020F0003D4ACDF800B04FF6E0731421782001F08E
:1021000087FEFFF76CBB394A4FF6E0730FE4139B71
:10211000012B3FF6FAAA0023354884F860300126E7
:1021200000F0E8FC84F87C6002F030FDC4F8800028
:10213000304600F08BFDFFF7EBBA139B012B3FF607
:102140003FAC83F0010203F0010384F8623002F037
:10215000010384F863300023264884F861300126A7
:10216000DEE70023E26084F85030FFF741F92248AF
:1021700000F0C0FCFFF7CCBA204AFFF779BB204A39
:10218000009548F210435421482001F041FE626F4F
:1021900000954FF6FF735421502001F04BFEFFF7DE
:1021A000D1BB124A4FF6E0738FE721690022D4E6D3
:1021B00014AE470188E3000864E30008A0E30008C8
:1021C0003CE30008A0E50008FCE10008F8E1000895
:1021D0001C000020C4E30008B8E3000868E400081D
:1021E00008E2000814E200083CE4000810E20008DD
:1021F000F4E30008D4E300084CE300082CE50008F1
:1022000074E4000828463F4A009540F2FF735421C9
:1022100001F0FEFD94F8302000954FF6FF73542135
:10222000282001F007FE384A009548F21043542157
:10223000482001F0EDFD94F8312000954FF6FF7332
:102240005421582001F0F6FDFFF77CBB626A002A9A
:102250003FF4A7AC2D49B1FBF2F2A2E4656A002D70
:102260003FF485AA294BB3FBF5F5FFF780BAB20717
:102270007FF5E8A9FFF7EDB99DF8542094F83B30BD
:102280009A427FF4E6AEFFF7C1B993423FF627AC1E
:102290001F4800F02FFCFFF73BBA00231D48A37036
:1022A00000F028FCFFF734BA0121FDE50123F5E732
:1022B0000221F9E50223F1E70323EFE7A0F1B77369
:1022C000A3F558534B454FF0000384F86C3084F865
:1022D000503098BF5B4684F86F308CBF5B4600235C
:1022E00084F87CB0606784F8703002F04FFCC4F86A
:1022F0008000584600F0AAFCA0E6074800F0FAFB70
:10230000FFF706BA78E400087CE4000880F0FA02DF
:1023100088E3000800E3000814E4000800B583B077
:1023200002F00EFC00F00AFD00F0B8FC00F0C0FD69
:1023300000F054FD00F030F800F078F901F0A8F951
:102340000A2002F029FC012000F058F8142002F0C5
:1023500023FC002001F040FD00230222CDE90023F0
:10236000084909484FF4407204F022FC012801D0CA
:1023700000F088FD04F088FD03B05DF804EB00F088
:1023800081BD00BFA4E40008D115000800F07ABDAB
:1023900000F078BD704700BF70B586B00024144BC4
:1023A000009405941A6B134842F002021A631B6BE7
:1023B00003F0020302250126009301A9009BCDE949
:1023C0000156CDE9036502F095FE01A90948019681
:1023D000CDE90245049402F08DFE224629460548C7
:1023E00002F0AEFF0449204601F096FD06B070BD34
:1023F0000038024000040240404B4C0002460221DB
:10240000014802F09DBF00BF00040240F0B5002467
:1024100089B0CDE90044CDE90244CDE90444CDE9D9
:102420000644002840D00126054630468DF800605D
:1024300001F06AFD102214230DEB0201684601F041
:10244000BDFD0746204601F05FFD6FBB9DF81130D2
:10245000F62B29D19DF813309DF812202A7003EA3B
:1024600006026A70C3F34002AA70C3F38002EA70E6
:10247000C3F3C0022A719DF81E2006990598A86032
:10248000C3F3001302F00702C5E90311AA759DF812
:102490001C109DF81F206B719DF81D30297530466A
:1024A0006B75EA7509B0F0BD002009B0F0BD00BF42
:1024B00010B588B00023CDE90333CDE90533079388
:1024C000002844D0C378047842788DF80140102168
:1024D0008DF800108DF8022081780BB141F00201D7
:1024E0000379B3BBD0E902238DF80E3003698DF870
:1024F00004204FEA124C140A120E8DF803108DF8C6
:102500000720017D427D8DF80540180A1C0C8DF8CE
:1025100008308DF809001B0E01208DF806C08DF8DB
:102520000A408DF80B308DF80C108DF80D2001F05D
:10253000EBFC102214230DEB0201684601F03EFD76
:102540000446002001F0E0FCB4FA84F0400908B031
:1025500010BD41F00401C5E708B50B4B421E9A427D
:1025600008D8014606A3D3E9002308480902FDF76D
:1025700047FE08BD0020014608BD00BFAFF3008044
:1025800080F0FA02000000003F0D030040787D015A
:1025900008B50849C308A1FB03239B084FF4B47195
:1025A00001FB13014FF4B47200230020FDF728FE55
:1025B00008BD00BF176CC11610B516490446FEF7DA
:1025C00043F8E0B114492046FEF73EF8D8B113496C
:1025D0002046FEF739F8A0B111492046FEF734F83D
:1025E00098B110492046FEF72FF880B10E492046D9
:1025F000FEF72AF800280CBF0620002010BD01209D
:1026000010BD032010BD022010BD042010BD052008
:1026100010BD00BFACE40008B4E40008BCE400084E
:10262000C4E40008CCE40008D4E4000838B50F4B3B
:102630000F4D104C002183F8541083F8AC1008465D
:1026400001F094FD01F056FE01F07EFE0A4925607E
:1026500064231022284601F0D7FD0848084920606D
:102660006423102201F0D0FD256038BD88000020D1
:102670005C17002038010020F8E40008EC17002067
:102680000CE50008002800F0C5802DE9F04F2DED85
:10269000028B002387B0CDE90133AF4CAF4DDFF89B
:1026A00004B3DFF804830646AD4B029A582707FBB4
:1026B00002330093631C08EE103A54F8030C012215
:1026C0000DF1170101F07EFE012840F091809DF888
:1026D00017300D2B0CD00A2B0AD094F851204E2A1B
:1026E00075D800991144013284F851200B71E4E748
:1026F00094F85130002BE0D0019A9A481044009A87
:102700001A44013B50FA83F000231371224612F859
:10271000013FE95C01F00301022904BF203BDBB269
:1027200082421370F3D1002754F8033C84F85170AF
:1027300018EE100AC6E9017737804146CBF8003021
:1027400005F024FC8146002839D04146384605F082
:102750001DFC4146034638461F4605F017FC8249DA
:1027600082464846FDF770FF00283DD07F49484625
:10277000FDF76AFF002837D07D494846FDF764FF22
:1027800038B901233370012007B0BDEC028BBDE8DE
:10279000F08F78494846FDF757FF002837D0764933
:1027A0004846FDF751FF002836D1002F6CD038463F
:1027B000FFF702FF707000284DD13378B3B96F492D
:1027C000DBF8000064230D2201F01EFD75E70023F5
:1027D00054F8030C84F851306949CBF800006423A5
:1027E0000C2201F011FD68E70E2333700120CBE7C6
:1027F000019B58330193029B58342BB1002007B042
:10280000BDEC028BBDE8F08F012302934CE702235D
:102810003370EBE7002070475A494846FDF714FF34
:1028200048B9DFB13846FFF7C7FE70700028C4D042
:1028300004233370DAE754494846FDF705FF98B999
:10284000002F63D03846052333700A22002105F09B
:102850001BFD7060B1E703233370C7E74A49484660
:10286000FDF7F2FE002851D048494846FDF7ECFE3E
:102870000146002850D19FB10623384633700A2202
:1028800005F002FD706098E73E494846FDF7DCFE22
:102890000028E3D03C494846FDF7D6FE002835D055
:1028A0003B494846FDF7D0FE002845D13949484606
:1028B000FDF7CAFE002879D137494846FDF7C4FE26
:1028C000002840F0838035494846FDF7BDFE0028CA
:1028D00000F0978032494846FDF7B6FE002840F0E8
:1028E000A2800B233370002F00F0DF8038460A22CD
:1028F000002105F0C9FC70605046BAF1000F03D00A
:102900000A22002105F0C0FCB06056E71F49484686
:10291000FDF79AFE0028C3D01D494846FDF794FEF6
:10292000014648B9002FC1D00723384633700A2228
:1029300005F0F6FB706040E716494846FDF784FE57
:10294000014698BB002FB7D00823384633700A22BF
:1029500005F09AFC706030E78B0000203DE800082D
:10296000880000208C000020F0E1000824E5000829
:1029700028E5000830E5000838E5000814E4000800
:1029800084E500083CE4000840E5000854E4000841
:1029900044E500084CE5000854E5000870E4000830
:1029A000C4E400083801002020E5000849494846F1
:1029B000FDF74AFE014648B9002F84D00923384666
:1029C00033700A2205F060FC7060F6E64249484622
:1029D000FDF73AFE014600287FF47CAF8FB1BAF1D3
:1029E000000F18D038460A273A463770039105F091
:1029F0004BFC039970603A46504605F045FCB060C8
:102A0000DBE636494846FDF71FFE60B90B233370FD
:102A10004FF47A706FE731494846FDF715FE00BB69
:102A20000B23337062E72E494846FDF70DFE00B9CF
:102A3000EFB92C494846FDF707FE10B90D23337056
:102A4000D4E629494846FDF7FFFD014690B90F231A
:102A500033703846002F3FF4FCAE0A2205F014FC18
:102A6000F7E61F494846FDF7EFFD0028E1D138465B
:102A70000C23E9E61D494846FDF7E6FD0146B8B9D5
:102A8000002F3FF49AAEBAF1000F3FF496AE3846ED
:102A9000102333700A22039105F0F6FB039970604E
:102AA0000A22504605F0F0FB2EE74FF47A7022E739
:102AB0000F494846FDF7C8FD014600287FF47DAE6A
:102AC000002F3FF47AAEBAF1000F3FF476AE3846ED
:102AD0001123DEE754E5000870E40008C4E40008B0
:102AE0005CE50008CCE4000864E500086CE500083B
:102AF00078E5000868B110B50446FDF721FF0549E7
:102B000002466423086892B22146BDE8104001F0F5
:102B10007BBB7047380100200138C3B2022B00D9BB
:102B2000704700B5084B53F8201083B00846019158
:102B3000FDF706FF019902460448642392B203B0F0
:102B40005DF804EB01F060BBF4E50008EC17002031
:102B50000138C3B2022B00D9704700B5084B53F8B7
:102B6000201083B008460191FDF7EAFE0199024664
:102B70000448642392B203B05DF804EB01F044BB57
:102B8000E8E50008EC17002010B5002486B0CDE978
:102B90000344114B009405941A6B104842F0040250
:102BA0001A631B6B03F0040300930C2301930123AE
:102BB00001A9029302230493009A02F09BFA224691
:102BC0000648042102F0BCFB04482246082102F01A
:102BD000B7FB06B010BD00BF00380240000802403D
:102BE000012800D97047044B03EBC00253F83000B2
:102BF000918802F0A9BB00BF20E6000830B5002490
:102C000087B0CDE903440F4B009405941A6B0E482E
:102C100042F008021A631B6B03F00803009300994B
:102C200002234FF40045012201A9CDE9015204938A
:102C300002F060FA04482246294602F081FB07B000
:102C400030BD00BF00380240000C024002464FF485
:102C50000041014802F074BB000C024010B5002393
:102C600086B0CDE90233CDE904330A4A0093136BF1
:102C7000094843F010031363136B03F010030122A0
:102C800000933C2401A9009B0194039202F032FAC4
:102C900006B010BD003802400010024008B5FFF732
:102CA00073FFFFF7ABFFBDE80840FFF7D7BF00BFDA
:102CB0002DE9F0471D481E4E1E4F1F4D00242021B8
:102CC000A146A0464FF0010A02F034FB98B92B78D8
:102CD000022B03F101031CD82B700134042C07F1E3
:102CE000010705F1010511D0B068B189083602F07D
:102CF00021FB0028EBD00134042C85F8008087F8F4
:102D0000008005F1010507F10107EDD14846BDE856
:102D1000F0873B78002BE0D10AFA04F349EA030973
:102D200087F800A01FFA89F9D7E700BF001002401A
:102D300000E60008501400204C14002030B5002399
:102D400093B0CDE90833CDE90A33CDE90133CDE9BC
:102D50000333204A00930593136C43F080531364AC
:102D6000136C03F08053012200934FF48033CDE9BC
:102D7000062302214FF480001923CDE90C104FF4F3
:102D8000A8720E9306A80723CDE90F21009C11938A
:102D900002F0E4FAB8B9104A1368022143F4804300
:102DA0000F2513600024CDE901514FF4A0524FF4D8
:102DB000805301A80521CDE90342059302F0E6FC0A
:102DC00020B913B030BD00F05DF8E4E700F05AF828
:102DD00013B030BD003802400070004000B583B031
:102DE000274B00220092186B40F400101863186BF8
:102DF00000F40010009000980192186B40F48000DD
:102E000018631B6B03F48003062101931020019BC0
:102E100001F0E6FE102001F021FF00220621112022
:102E200001F0DEFE112001F019FF002206210C2026
:102E300001F0D6FE0C2001F011FF002206210E2029
:102E400001F0CEFE0E2001F009FF002206213820FD
:102E500001F0C6FE382001F001FF002206213A20D1
:102E600001F0BEFE3A2001F0F9FE002246200621C4
:102E700001F0B6FE462003B05DF804EB01F0EEBEB3
:102E80000038024000B583B072B6084C002501201E
:102E9000FFF7A6FE0195019BA342F8D8019B0133E1
:102EA0000193019BA342F9D9F1E700BF3F0D030055
:102EB00070B5002486B0CDE90344144B009405940A
:102EC0001A6B134842F008021A631B6B03F00803E5
:102ED000012500930F26022301A90493009ACDE94E
:102EE000016502F007F92A463146094802F028FA3E
:102EF000F023074801A9CDE90134CDE9035402F0DC
:102F0000F9F8044B1D7006B070BD00BF00380240D8
:102F1000000C0240F81600202DE9F04F3C4B1B78C6
:102F200083B0002B5FD03B483B4F3A4C01220F212E
:102F300002F006FA00250126A84600223146204666
:102F400002F0FEF9CDF80480019B4F2B05D8019BC0
:102F500001330193019B4F2BF9D91021204602F038
:102F6000E9F94FF000095FFA89FBDFF8C0A009F129
:102F7000010968B1B9F1040F29D03AF8021B2046C3
:102F800002F0D8F95FFA89FB09F101090028F1D1B3
:102F900001222048314602F0D3F901F0F7FD1F4B22
:102FA0000BEB85051A78EDB2AA4223D11C4B1B68A6
:102FB000C01A132825D9FF2D1A4B26D01A78AA42F9
:102FC0001FD0194A1D70505D03B0BDE8F08F013568
:102FD000012231462046EDB202F0B2F9042D02D0B2
:102FE00037F8026BA9E701F0D1FD0C4B1A78FF25E9
:102FF000AA42DBD00A4A1D701060002003B0BDE871
:10300000F08F002003B0BDE8F08F00201D70F5E7C1
:10301000F8160020000C02404AE600083D0100209E
:10302000F41600203C01002038E6000832E60008D3
:103030002DE9F041C04DC14C4FF48036AE614FF4E4
:103040008006A6614FF0080E2A244FF080474FF00B
:10305000005C4FF400584FF4804614F0800F0EF1DE
:10306000FF3EAF614FEA440414BFC5F81880C5F8AD
:1030700018C01EF0FF0EAE61E4B2EED10126AE61C3
:10308000AE4C4FF48036AE614025A5610824AA4DB0
:1030900020FA04FE4FF080474FF0005C4FF40058D8
:1030A0004FF480461EF0800F04F1FF34AF614FEA09
:1030B0004E0E14BFC5F81880C5F818C014F0FF04F0
:1030C000AE615FFA8EFEEDD10124AC615FFA80FC47
:1030D0004FF480349948AC6140248461964C0820B8
:1030E0004FF080464FF000574FF4005E4FF480459C
:1030F0001CF0800F00F1FF30A6614FEA4C0C14BFAA
:10310000C4F818E0A76110F0FF00A5615FFA8CFC1D
:10311000EED10120A0614FF480358848A56140249C
:103120008461854C4FEA122C08204FF080464FF006
:1031300000574FF4005E4FF480451CF0800F00F103
:10314000FF30A6614FEA4C0C14BFC4F818E0A76129
:1031500010F0FF00A5615FFA8CFCEED10120A061A8
:103160004FF48030A06100F1804000F588304024A9
:103170008461714CD2B208204FF080464FF0005766
:103180004FF4005C4FF4804512F0800F00F1FF30E7
:10319000A6614FEA420214BFC4F818C0A76110F03C
:1031A000FF00A561D2B2EFD10120A061634A4FF4C4
:1031B0008030A0614FF480005F4C90614FF08046FA
:1031C00008202B224FF000574FF4005C4FF480454D
:1031D00012F0800F00F1FF30A6614FEA420214BFE7
:1031E000C4F818C0A76110F0FF00A561D2B2EFD1FA
:1031F00001204FF48032A061A26102F1804202F509
:103200008832402494614C4C080A08224FF08046D2
:103210004FF000574FF4005C4FF4804510F0800FE2
:1032200002F1FF32A6614FEA400014BFC4F818C093
:10323000A76112F0FF02A561C0B2EFD10120A06129
:103240003E4A4FF48030A061402400F180409461F8
:1032500000F58430C9B208224FF080454FF0005687
:103260004FF400574FF4804411F0800F02F1FF3209
:1032700085614FEA410114BF8761866112F0FF0248
:103280008461C9B2F0D12D4A01214FF480348161AB
:103290008461402428489461190A08224FF080452F
:1032A0004FF000564FF400574FF4804411F0800F58
:1032B00002F1FF3285614FEA410114BF87618661E7
:1032C00012F0FF028461C9B2F0D11C4A01244FF40C
:1032D000803184618161402001F180419061DBB2E5
:1032E00001F5843108224FF080444FF000554FF42F
:1032F00000564FF480401F0602F1FF328C614FEA06
:1033000043034CBF8E618D6112F0FF028861DBB216
:10331000F1D10A4B01244FF480308C614FF48002CC
:10332000886105499A614FF0804408222C234FF0B0
:1033300000554FF4005603E0000802400010024020
:103340004FF480401F0602F1FF328C614FEA4303C5
:103350004CBF8E618D6112F0FF028861DBB2F1D14A
:1033600001238B61BDE8F0812DE9F0431C4683B059
:103370008318A02BBDF828600746884600F381809B
:103380001546013A024492B208EB0403802B73DC29
:10339000631E43449BB2CDE9002301F0F7FB4FF0DD
:1033A000E02105FB04F44D69896915F1010CDDE9A3
:1033B00000236BD04FF47A75ACEB010105FB01F1F2
:1033C000B1FBFCF105FB001938464146FFF730FE22
:1033D00033494FF480338B6103F1804303F5883325
:1033E0004022370A5FFA86FE2E4E9A614FF0000C9B
:1033F0004FF480403A46082312F0800F03F1FF3368
:1034000014BF35464FF0C045520013F0FF038D61E5
:10341000D2B28861F0D17246082312F0800F03F116
:10342000FF3314BF35464FF0C045520013F0FF0381
:103430008D61D2B28861F0D10CF1010C6445D9D113
:1034400001238B6101F0A2FB4FF0E0235A699B69D5
:10345000013220D04FF47A71D31A01FB03F3B3FB8E
:10346000F2F301FB00331049104AA3EB09050D608C
:10347000146003B0BDE8F083C8F18004A4B27F23D8
:1034800089E7C0F1A005ADB29F227DE74FF47A75C0
:1034900005FB00F998E74FF47A7300FB03F3E2E7CA
:1034A0000008024000200040FC1600200017002009
:1034B0002DE9F04F1F4683B01378BDF83060002B24
:1034C0007BD000F10803A02B77D800230124944679
:1034D00001E0A02D08D89E46A3B25C1C1CF8032076
:1034E00000EBC405002AF4D1002B66D00CF1FF32AA
:1034F0000192421E0CEB0E0402EBC30201F1090320
:10350000009492B29BB22E4CDFF8BC80FFF790FD86
:103510004FF480322B4BA26140229A6100254FF07C
:103520000109DDF804A009FA05F91AF8010F00F005
:10353000C9FC002286464FF4804032E0042A32D88B
:103540001EF8023013EA090F0CBF33463B464FEA20
:10355000132C08211CF0800F01F1FF3114BFC3466A
:103560004FF0C04B4FEA4C0C11F0FF01C4F818B0FB
:103570005FFA8CFCA061EDD1DBB2082113F0800F63
:1035800001F1FF3114BFC4464FF0C04C5B0011F095
:10359000FF01C4F818C0DBB2A061EFD10132082AE4
:1035A00003D0062DCAD93346D1E7009B9A45BCD13A
:1035B00001350A2DB3D10123A36103B0BDE8F08F1B
:1035C00000080240001002400020004070B50024B6
:1035D00088B0CDE90344CDE90544264B0194079416
:1035E0001A6B254D254E42F004021A631A6B02F045
:1035F00004020192019A02941A6B42F010021A63BB
:103600001B6B012203F01003029311462846029B14
:1036100001F096FE28460122022101F091FE284683
:1036200001224FF4005101F08BFE284601224FF495
:10363000804101F085FE284601224FF4004101F04F
:103640007FFE01223046402101F07AFE01230493DF
:103650000323CDE90543284603A94EF20303039350
:1036600001F048FD402303A93046039301F042FDD9
:1036700008B070BD0038024000080240001002404F
:1036800002460221014801F05BBE00BF0008024073
:10369000F0B5B04C83B0FFF799FF01224FF4004121
:1036A000204601F04DFE0A2001F076FA00224FF488
:1036B0000041204601F044FE0A2001F06DFA01228B
:1036C0004FF40041204601F03BFE782001F064FAFF
:1036D000A14B4FF480324FF48001A2614FF0804043
:1036E00099610822B4234FF000554FF400564FF46F
:1036F00080411F0602F1FF32A0614FEA43034CBF35
:10370000A661A56112F0FF02A161DBB2F1D1924B7B
:1037100001204FF48031A0614022A16101F180417C
:103720009A6101F58431082207234FF080444FF05D
:1037300000554FF400564FF480401F0602F1FF324F
:103740008C614FEA43034CBF8E618D6112F0FF0222
:103750008861DBB2F1D1804B01244FF480308C6161
:103760004FF4800288617B499A614FF080440822BF
:10377000B1234FF000554FF400564FF480401F0620
:1037800002F1FF328C614FEA43034CBF8E618D61C1
:1037900012F0FF028861DBB2F1D16F4B01244FF4CC
:1037A00080308C61402288616A499A614FF0804480
:1037B000082214234FF000554FF400564FF4804078
:1037C0001F0602F1FF328C614FEA43034CBF8E614A
:1037D0008D6112F0FF028861DBB2F1D15E4B0124F2
:1037E0004FF480308C614FF48002886159499A61AE
:1037F0004FF080440822FF234FF000554FF400564D
:103800004FF480401F0602F1FF328C614FEA430300
:103810004CBF8E618D6112F0FF028861DBB2F1D185
:103820004D4B01244FF480308C614022886149491E
:103830009A614FF080440822A5234FF000554FF4C1
:1038400000564FF480401F0602F1FF328C614FEAB0
:1038500043034CBF8E618D6112F0FF028861DBB2C1
:10386000F1D13D4B01244FF480308C614FF4800244
:10387000886138499A614FF080440822EC234FF068
:1038800000554FF400564FF480401F0602F1FF32FE
:103890008C614FEA43034CBF8E618D6112F0FF02D1
:1038A0008861DBB2F1D12C4B01244FF480308C6164
:1038B0004022886127499A614FF080440822892379
:1038C0004FF000554FF400564FF480401F0602F1B0
:1038D000FF328C614FEA43034CBF8E618D6112F061
:1038E000FF028861DBB2F1D11B4B01244FF4803021
:1038F0008C614FF48002886116499A614FF08044D0
:103900000822ED234FF000554FF400564FF480404D
:103910001F0602F1FF328C614FEA43034CBF8E61F8
:103920008D6112F0FF028861DBB2F1D10A4B0124F4
:103930004FF480308C614022886106499A614FF0D3
:103940008044082225234FF000554FF400564FF4D1
:10395000804003E000080240001002401F0602F110
:10396000FF328C614FEA43034CBF8E618D6112F0D0
:10397000FF028861DBB2F1D1AF4B01244FF48030FC
:103980008C614FF480028861AC499A614FF08044A9
:103990000822EE234FF000554FF400564FF48040BC
:1039A0001F0602F1FF328C614FEA43034CBF8E6168
:1039B0008D6112F0FF028861DBB2F1D19E4B0124D0
:1039C0004FF480308C61402288619C499A614FF0AD
:1039D0008044082222234FF000554FF400564FF444
:1039E00080401F0602F1FF328C614FEA43034CBF57
:1039F0008E618D6112F0FF028861DBB2F1D18E4BD6
:103A000001244FF480308C614FF4800288618B492F
:103A10009A614FF080440822F6234FF000554FF48E
:103A200000564FF480401F0602F1FF328C614FEACE
:103A300043034CBF8E618D6112F0FF028861DBB2DF
:103A4000F1D17D4B01244FF480308C61402288619C
:103A50007A499A614FF08044082210234FF00055B4
:103A60004FF400564FF480401F0602F1FF328C6184
:103A70004FEA43034CBF8E618D6112F0FF028861F3
:103A8000DBB2F1D16C4B01244FF480308C614FF4E8
:103A90008002886169499A614FF080440822C423FA
:103AA0004FF000554FF400564FF480401F0602F1CE
:103AB000FF328C614FEA43034CBF8E618D6112F07F
:103AC000FF028861DBB2F1D15B4B01244FF48030FF
:103AD0008C614022886159499A614FF080440822E4
:103AE0000D234FF000554FF400564FF480401F0651
:103AF00002F1FF328C614FEA43034CBF8E618D614E
:103B000012F0FF028861DBB2F1D14B4B01244FF47C
:103B100080308C614FF48002886148499A614FF08F
:103B200080440822C5234FF000554FF400564FF44F
:103B300080401F0602F1FF328C614FEA43034CBF05
:103B40008E618D6112F0FF028861DBB2F1D13A4BD8
:103B500001244FF480328C6140208A6102F180425E
:103B6000986102F5843208234FF080444FF00050F2
:103B70004FF48041013B13F0FF0394619061916128
:103B8000F8D12D4B01244FF4803194614FF4800023
:103B9000916101F18041986101F584310822C623C9
:103BA0004FF080444FF000554FF400564FF48040E2
:103BB0001F0602F1FF328C614FEA43034CBF8E6156
:103BC0008D6112F0FF028861DBB2F1D11A4B012442
:103BD0004FF480308C614022886118499A614FF01F
:103BE000804408220E234FF000554FF400564FF446
:103BF00080401F0602F1FF328C614FEA43034CBF45
:103C00008E618D6112F0FF028861DBB2F1D10A4B47
:103C100001248C614FF480304FF48002074C88619E
:103C20004FF000559A614FF08040082211234FF465
:103C300000564FF4804103E00010024000080240AB
:103C40001F0602F1FF32A0614FEA43034CBFA66199
:103C5000A56112F0FF02A161DBB2F1D10123A361E2
:103C60000A2000F099FF5A4B5A494FF480324FF422
:103C70008000A2614FF00055986108223A234FF06E
:103C800080444FF400564FF480401F0602F1FF328B
:103C90008C614FEA43034CBF8E618D6112F0FF02CD
:103CA0008861DBB2F1D14A4B01244FF480308C6142
:103CB0004022886147499A614FF0804408220523D9
:103CC0004FF000554FF400564FF480401F0602F1AC
:103CD000FF328C614FEA43034CBF8E618D6112F05D
:103CE000FF028861DBB2F1D1394B01244FF48030FF
:103CF0008C614FF48002886136499A614FF08044AC
:103D0000082236234FF000554FF400564FF4804000
:103D10001F0602F1FF328C614FEA43034CBF8E61F4
:103D20008D6112F0FF028861DBB2F1D1284B0124D2
:103D30004FF480308C614022886126499A614FF0AF
:103D40008044082220234FF000554FF400564FF4D2
:103D500080401F0602F1FF328C614FEA43034CBFE3
:103D60008E618D6112F0FF028861DBB2F1D1184BD8
:103D700001248C614FF480304FF48002154C88612F
:103D800008259A614FF0804029234FF000564FF4E8
:103D900000574FF48042190605F1FF31A0614FEA48
:103DA00043034CBFA761A66111F0FF05A261DBB21E
:103DB000F1D10122A2610748022101F0C1FA009568
:103DC0008023A02229462846FFF7CEFA03B0F0BD93
:103DD000001002400008024000B583B000210090AE
:103DE0008023A0220846FFF7BFFA03B05DF804FB6A
:103DF00070B49F28BDF80C6007D87F2905D822B180
:103E00001BB1039670BCFFF7AFBA70BC704700BF20
:103E100010B5BDF8084062B19F28864609D801F167
:103E20000A0CBCF1800F04D80294BDE81040FFF7E3
:103E30003FBB10BD2DE9F04389B0214FBDF8406074
:103E40000024A7FB025E4FEADE0E0EEB8E0C254629
:103E5000A2EB4C0C20340DEB040990460CF1300C15
:103E60006C1C5FFA8CFCB8F1090F09F818CCE4B2AD
:103E70007246E6D805AA04B3AE46144601E017F828
:103E800018CC04F801CB0EF1FF3E5FFA8EFE0EF166
:103E90002007BEF1FF0F6F44F1D101351544002416
:103EA0009F282C7006D801F10A04802C02D80096B5
:103EB000FFF7FEFA09B0BDE8F0831546EFE700BF53
:103EC000CDCCCCCCA0F16103192B08D8A0F12003F4
:103ED000DBB20848203B03EB8303184470472038CB
:103EE000C3B23A2B9DBF034B00EB8000C0180148C2
:103EF000704700BF50E6000802464FF400610148D9
:103F000001F01EBA0000024080F0010210210148B9
:103F100001F016BA0000024070B50E46054601F0E9
:103F2000E3FC214B214C224A002E08BF1E464FF4D1
:103F30008273012DC4E9002331D0022D4FF000031C
:103F40000CBF4FF400421A46A2604FF40072C4E95D
:103F50000532C4E90333174B174903F11C0C002247
:103F600001E053F8042B382A06D831F812501DB15D
:103F7000B0FBF5F5B54202D99C45F2D138220023B9
:103F800007210A48E162C4E90723C4E9093301F0C3
:103F900063FD00B970BDBDE87040FEF773BF00233C
:103FA0004FF48062D0E700BF40420F0004170020AA
:103FB00000300140F0E7000878E7000800B583B062
:103FC00084460093044813460A46614601F0A6FD64
:103FD00003B05DF804FB00BF04170020B1F5807F3B
:103FE000B0F8042300F28C8030B592B233D0914205
:103FF00030D040F28680441D8B1A02F1040C144428
:104000005A1E844414FA82F201250DE0B0F806E34A
:104010009CF8004010FA8EFE0CF1010C62458EF8FF
:104020000441A0F8063313D0B0F80633B0F808E323
:1040300001339BB2B3F5007F28BF00231FFA8EFE29
:104040009E45E3D10CF1010C624580F80A53EBD197
:10405000A0F8041330BD002AFCD0FF2A98BF00212D
:1040600052D801240EE0B0F806C39EF804E00132F5
:1040700010FA8CFC92B2B2F5807F8CF804E1A0F8C3
:10408000063316D0B0F80633B0F808C301339BB23C
:10409000B3F5007F28BF00231FFA8CFC9C4500EB82
:1040A000020EE0D1013292B2B2F5807F80F80A436D
:1040B000E8D149B34B1E441D00F1040C14FA83F4FB
:1040C00001250DE0B0F806239CF800E010FA82F21A
:1040D00082F804E1A0F806330CF1010C6445B7D076
:1040E000B0F80633B0F8082301339BB2B3F5007F74
:1040F00028BF002392B29A42E4D180F80A53EBE73A
:104100007047FF2AADD9D4E70021A1E70E4B9842B2
:1041100014D090B103680D4A93420FD00C4A9042DC
:104120000ED00C4A93420BD00B4A90420AD00B4A55
:104130000B48934218BF00207047704709487047EA
:1041400009487047064870475C170020001001407E
:10415000A417002000440040EC1700200048004055
:104160005C0700204001002050040020012838B5E1
:104170002FD002281E4B14BF0C22042201291A60E2
:104180002CD0022914BF0C2104211A481A4C1B4DB3
:1041900005600023C0E90233C0E9063303614FF430
:1041A000E13342612160436001F05EFEE0B91448F2
:1041B0002268144C00234FF4E131C0E90041C0E90A
:1041C0000233C0E90432C0E9063301F04DFE38B9CC
:1041D00038BD074B082201291A60D2D10821D4E743
:1041E000BDE83840FEF74EBEFEF74CFEDFE700BFED
:1041F0004C0400205C170020680A002000100140D9
:10420000EC17002000480040E8B170B51D46E1B150
:104210000AB9002070BD044601F058FE0028F9D10B
:1042200000F0B4FC064694F84130202BF1D06B1C12
:10423000F9D000F0ABFC831B9D42F4D8204601F07E
:104240008DFE032070BD01207047012070BD00BFAE
:1042500038B51F4B9842044612D078B103681D4A06
:1042600093420DD01C4A90422FD01C4A93422CD02E
:104270001B4A944227D01B4A934224D0012038BDC8
:10428000194D95F80B3303F0FF00D3B9A5F80403DB
:104290004FF48072A5F80603291DA5F8080385F8D8
:1042A0000A03204602F0DEF90028E8D1012385F850
:1042B0000B33E36B2BB11A68136823F00803136008
:1042C00038BD002038BD094DDBE7094DD9E700BFF7
:1042D0005C17002000100140A4170020004400409B
:1042E000EC17002000480040400100205C0700203F
:1042F0005004002038B5124C94F80B330BB1002059
:1043000038BD104D03F0FF00A4F804034FF4807291
:10431000A4F80603211DA4F8080384F80A0328461C
:1043200002F0A0F90028EBD1EB6B012284F80B23FB
:10433000002BE4D01A68136823F00803136038BD1B
:10434000400100205C17002038B5184D184A2B6832
:10435000934228D01749184C184A8B4218BF14466C
:1043600094F80B3303F0FF000BB1002038BDA4F824
:1043700004034FF48072A4F80603211DA4F8080377
:1043800084F80A03094802F06DF90028EED1EB6BBE
:10439000012284F80B23002BE7D01A68136823F05E
:1043A0000803136038BD064CDAE700BFEC170020A5
:1043B0000010014000440040500400205C07002031
:1043C0004001002070B51546FFF7A0FE00283AD046
:1043D0000E46002937D090F80B3304461BBB95B32B
:1043E00006F1FF3C0020B4F80813B4F8063389B294
:1043F0009BB2994200F1010214D0B4F8083314FAC8
:1044000083F390B293F804310CF8013FB4F8083309
:1044100001339BB2B3F5007F28BF00238542A4F887
:104420000833E0D170BD0368DB6B002BD7D01B686D
:104430005968C1F5807189B2B1F5807F28BF00212C
:10444000FFF7CCFDCBE7002070BD00BF0E4B9842BC
:1044500011D078B103680D4A93420CD00C4A9042B7
:104460000FD00C4A93420CD00B4A904206D00B4A14
:10447000934203D070470A48FFF7B0BD0948FFF7E1
:10448000ADBD0948FFF7AABD5C1700200010014030
:10449000A417002000440040EC1700200048004012
:1044A000400100205C07002050040020054B0268FA
:1044B0009A4200D0704713685B06FCD50020FFF7D6
:1044C0001BBD00BF00480040154B984210B5044684
:1044D00011D078B10368134A93420CD0124A90422B
:1044E0001BD0124A934218D0114A944213D0114A59
:1044F000934210D010BD104B93F80B23002AF9D033
:104500000022204683F80B2301F05EFD2046BDE823
:104510001040FFF79DBE094BEEE7094BECE700BFEB
:104520005C17002000100140A41700200044004048
:10453000EC17002000480040400100205C070020EC
:104540005004002082B00C4B002100915A6C42F4C0
:1045500080425A645A6C02F480420092009A01919F
:104560001A6C42F080521A641B6C03F08053019362
:10457000019B02B0704700BF0038024070B503686D
:10458000AA4A8EB000249342CDE90944CDE90B44F8
:1045900005460D9408D0A64A934277D0A54A934287
:1045A00000F0C6800EB070BDA34B00945A6CA348B7
:1045B000A34E42F010025A645A6C02F010020092AC
:1045C000009A01941A6B42F001021A631A6B02F00E
:1045D00001020192019A02941A6B42F480021A635A
:1045E0001B6B03F4800302934FF4C0630222099310
:1045F000029B0123CDE90A234FF0030C072309A9ED
:10460000CDE90CC300F076FD8E4A4FF00063C6E999
:1046100000234FF48073C6E906434FF480624FF4E1
:1046200000333046C6E90244C6E90424C6E908342A
:1046300000F03CFB002840F0EC80834CDFF82CE2DB
:104640004FF00062C4E900E240220023A2604FF470
:104650008062C4E9033220464FF48032C4E9053356
:10466000C4E90732636200F021FB002840F0CE80ED
:10467000B5630022C5E90E4606212520A56300F09A
:10468000AFFA252000F0EAFA0EB070BD6A4B039431
:104690001A6C6E486E4E42F400321A641A6C02F4C0
:1046A00000320392039A04941A6B42F008021A63D0
:1046B0001A6B02F008020492049A05941A6B42F4F1
:1046C00000121A631B6B03F400130593602302228C
:1046D0000993059B0123CDE90A234FF0030C07231F
:1046E00009A9CDE90CC300F005FD5A4A74624FF0E8
:1046F0000063C6E900234FF48063402233613046F3
:104700004FF48033C6E90224C6E90544C6E90743ED
:1047100000F0CCFA00287FD1AE63002206212620CB
:10472000B56300F05DFA262000F098FA0EB070BD77
:10473000414B06941A6C4848484E42F480221A6451
:104740001A6C02F480220692069A07941A6B42F0C1
:1047500002021A631A6B02F002020792079A089487
:104760001A6B42F400121A631B6B03F400130893D4
:104770004FF4406309934FF0020C089B0123CDE9ED
:104780000AC34FF0030E072309A9CDE90CE300F09B
:10479000B1FC334A4FF00063C6E900234FF4807345
:1047A000C6E906434FF480624FF400333046C6E951
:1047B0000244C6E90424C6E9083400F077FA88BB4D
:1047C000284C29494FF00062C4E90012402200231E
:1047D000A2604FF48062C4E9033220464FF4803275
:1047E000C4E90533C4E90732636200F05FFAB0B987
:1047F000B5630022C5E90E4606212720A56300F017
:10480000EFF9272000F02AFA0EB070BDFEF73AFB50
:104810002EE7FEF737FB10E7FEF734FB7CE7FEF7E9
:1048200031FBE5E7FEF72EFBCAE700BF00100140B1
:1048300000440040004800400038024000000240B0
:10484000141500204064024074150020000C024042
:10485000D4150020A060024000040240341600205D
:10486000286002409416002058600240B86402405C
:1048700030B502682E498BB000238A42CDE905335A
:10488000CDE90733099304D02A498A422DD00BB0D1
:1048900030BD294A0193516C284841F4805151643C
:1048A000516C01F48051019101990293136B43F013
:1048B00001031363136B03F0010302932022029B95
:1048C000059205A9032205230224CDE90823CDE999
:1048D000064400F00FFCC02201231848059205A9E8
:1048E000079300F007FC0BB030BD134A0393116C23
:1048F00041F480411164106C00F4804003900398EF
:104900000493136B0E48022423431363136B069422
:1049100023400493032205234FF4204505A9059560
:10492000CDE90823049D00F0E5FB0BB030BD00BFCE
:1049300000300140003800400038024000000240D2
:1049400000040240704700BF704700BFFEE700BF91
:10495000FEE700BFFEE700BFFEE700BF08B500F0BE
:1049600009F902F007FC012800D108BDBDE80840A4
:1049700003F052B8014800F0CBBA00BF3416002053
:10498000014800F0C5BA00BF94160020014800F0AD
:10499000BFBA00BFB4140020014800F0B9BA00BF8C
:1049A000D4150020014800F0B3BA00BF5414002011
:1049B000014800F0ADBA00BF14150020014800F016
:1049C000A7BA00BF74150020014801F081BC00BFE8
:1049D0005C170020014801F07BBC00BFA417002039
:1049E000014801F075BC00BFEC17002001207047A2
:1049F00008B503F0D9F9162303604FF0FF3008BD66
:104A000008B503F0D1F916230360FEE770B5161E52
:104A100007DD0C468D19AFF3008004F8010BA542A9
:104A2000F9D1304670BD00BF70B5161E07DD0C46CB
:104A30008D1914F8010BAFF30080A542F9D130466F
:104A400070BD00BF4FF0FF30704700BF4FF4005300
:104A50004B600020704700BF012070470020704766
:104A600010B50C4C0C4B0D492268591A2AB1104450
:104A7000884207D82060104610BD094A22601044C1
:104A80008842F7D903F090F90C234FF0FF3203600E
:104A9000104610BD34180020000002200004000061
:104AA000088A00200D48854601F00AFE0C480D4991
:104AB0000D4A002302E0D458C4500433C4188C4279
:104AC000F9D30A4A0A4C002301E013600432A242DF
:104AD000FBD303F06FF9FCF787FCFEE70000022030
:104AE000000000203014002050EC0008301400209A
:104AF000088A0020FEE7000038B50E4A0E4B1278F7
:104B00001B6805464FF47A70B0FBF2F0B3FBF0F08F
:104B100000F0B2F808B90F2D01D9012038BD0446C4
:104B2000024629464FF0FF3000F05AF8034B20466A
:104B30001D6038BD6C0A0020740A0020700A002035
:104B400008B50B4B1A6842F400721A601A6842F4F6
:104B500080621A601A6842F480721A60032000F0C2
:104B60002DF80F20FFF7C8FFFFF7ECFC002008BD71
:104B7000003C0240034A044B11681B780B4413604D
:104B8000704700BF381800206C0A0020014B1868DD
:104B9000704700BF3818002038B50446FFF7F6FF0D
:104BA000631C054602D0044B1B781C44FFF7EEFF44
:104BB000431BA342FAD338BD6C0A00200749CA68D8
:104BC00003024FF6FF0003F4E0630240134343F097
:104BD000BF6343F40033CB60704700BF00ED00E0DB
:104BE0001C4BDB68C3F3022300B5C3F1070EBEF113
:104BF000040F03F1040C28BF4FF0040EBCF1060FA4
:104C00001BD9033B4FF0FF3C0CFA03FC22EA0C02D9
:104C10004FF0FF3C0CFA0EFC21EA0C0199400028F1
:104C200041EA02010CDB00F16040090100F561403E
:104C3000C9B280F800135DF804FB00221346E7E7D1
:104C4000054B00F00F0009010344C9B219765DF865
:104C500004FB00BF00ED00E0FCEC00E0002808DBF6
:104C6000044A4109012300F01F0003FA00F042F852
:104C70002100704700E100E00138B0F1807F10D2E0
:104C800010B44FF0E023084C58614FF0F00C84F85A
:104C900023C00022072110469A615DF8044B196178
:104CA00070470120704700BF00ED00E038B50446B2
:104CB000FFF76CFF002C67D023680022022184F8E4
:104CC000351084F834201A6822F0010205461A6073
:104CD00005E0FFF75BFF431B052B39D823681A68F3
:104CE000D107F6D4D4E90120E16802430A43D4E9AC
:104CF0000451A0692A430A43E1691D6802430A433B
:104D000033492940256A2A430A43616A042926D087
:104D10001A605A6922F007021143D8B22D4A59612C
:104D20001038A2FB005212092B4923F47F73895CCF
:104D3000E16523F003035F2888BF04333F228A40E4
:104D4000A36500209A600123606584F8353038BD82
:104D500003232022626584F83530184638BDD4E933
:104D60000B5129430A431A605969A26A21F00701CD
:104D7000114341F00401002DCFD038B9012A23D0CE
:104D800032F00202C9D108E0012038BDB0F5005F61
:104D90000CD0022A03D9032ABFD1EA01BDD50123D1
:104DA0004022626584F83530184638BD032AB4D8ED
:104DB00001A050F822F000BF9F4D00089B4D000855
:104DC0009F4D0008C94D0008B5F1C07FA5D1E6E7A9
:104DD0003F8010F0ABAAAAAA0CE8000870B490F8C3
:104DE0003440856D012C35D090F835404FF0010CE2
:104DF000644580F834C005D0002380F8343070BC9E
:104E000002207047022680F8356004680026466557
:104E1000266826F48026266063608368402B0EBFD8
:104E2000A260A160E260C26D08BFE1603F239340D1
:104E3000AB602368026C43F0160323601AB1236849
:104E400043F008032360236843F00103002023603C
:104E500070BC7047022070BC704700BF70B504463C
:104E6000866DFFF793FE94F83530022B06D00023B1
:104E7000802284F834306265012070BD23681A688E
:104E800022F016021A605A6922F080025A61226CDE
:104E9000054632B31A6822F008021A601A6822F036
:104EA00001021A6005E0FFF771FE431B052B0FD8C6
:104EB00023681B6813F00103F5D1E16D3F228A409E
:104EC0000121B26084F8351084F83430184670BD82
:104ED000032020220023626584F8343084F83500F2
:104EE00070BDA26C002AD5D1D8E700BF90F835304C
:104EF000022B03D0802343650120704702680523FD
:104F000080F83530136823F00103002013607047E8
:104F10002DE9F04182B0744A866D15680023019333
:104F2000C36D346808229A402242804604D001684A
:104F30000F68780700F18A8001229A40224204D04B
:104F4000D8F800104969090678D404229A40224210
:104F500004D0D8F8001009688F0767D410229A404F
:104F6000224204D0D8F800100F68380749D4202214
:104F70009A40224217D0D8F800100C68E00612D5EB
:104F8000B26098F83520052A73D00B6813F4802F8F
:104F90000B6800F09080190340F19B80D8F83C30FA
:104FA0000BB140469847D8F854303BB3D8F854304A
:104FB000DA071BD5D8F800204C49052388F835308E
:104FC0001368A1FB051523F00103AD0A136002E08D
:104FD0001368DB0704D5019B0133AB420193F7D97A
:104FE0000122002388F8352088F83430D8F84C3076
:104FF00023B1404602B0BDE8F041184702B0BDE819
:10500000F081B2600A6812F4802F0A682AD1D705AD
:1050100003D40A6822F008020A60D8F84020002A67
:10502000A5D040469047D8F85C30A0E7B260D8F8E9
:10503000542042F00402C8F854208FE7B260D8F838
:10504000542042F00202C8F854207EE70F6827F08F
:1050500004070F60B260D8F8542042F00102C8F88B
:10506000542069E71203D8D5D8F84820002AD8D1AF
:105070007DE70A6822F016020A604A6922F080027F
:105080004A61D8F8402052B30A6822F008020A6048
:105090003F2202FA03F3D8F85010B3600122002334
:1050A00088F8352088F834300029A7D0404602B06F
:1050B000BDE8F041084713F480737FF46FAF0A68CE
:1050C00022F010020A60012288F8352088F8343076
:1050D00064E7D8F84430002B7FF463AF63E7D8F877
:1050E0004820002AD0D1D3E7740A0020B5814E1B96
:1050F000406D70472DE9F04F00220C68DFF82CA2BC
:10510000834E85B01346894605E00133102B02F12A
:10511000020200F089800121994001EA040BA143B9
:10512000F3D1D9F804C00CF003014D1E012D7ED936
:10513000032940F0BE809140CD4307683D4029439C
:105140001CF4403F0160E0D000210391DAF84410E4
:1051500041F48041CAF84410DAF8441001F4804167
:105160000391039923F0030101F1804101F59C3182
:1051700003F00307D1F808E0BF000F25BD402EEA79
:105180000508644DA84224D005F58065A84200F0CA
:105190009480614DA84200F09780604DA84200F0D5
:1051A0009A805F4DA84200F09D805E4DA84200F0BD
:1051B000A0805D4DA84200F0A380DFF874E1704547
:1051C0000CBF4FF0070E4FF0080E0EFA07F748EA33
:1051D0000708C1F80880B1686FEA0B071CF4801F4C
:1051E0000CBF39404BEA0101B160F5681CF4001FA7
:1051F0000CBF3D404BEA0505F56075681CF4003FA7
:105200000CBF3D404BEA0505756031681CF4803FDA
:1052100003F101030CBF39404BEA0101102B31604F
:1052200002F102027FF477AF05B0BDE8F08FD9F844
:105230000C50876805FA02F8032505FA02FE27EAF2
:105240000E0748EA0707876047686FEA0E0527EAF6
:105250000B0ECCF300179F4047EA0E074760C76864
:1052600007EA050ED9F80870974047EA0E070229A9
:10527000C76001FA02F17FF460AF4FEAD30E00EB92
:105280008E0E03F00708DEF820700097D9F8107032
:105290004FEA880807FA08F701970F2707FA08F876
:1052A000009F27EA0808019F47EA0807CEF8207008
:1052B00043E703259540ED43D1E74FF0010E0EFA89
:1052C00007F748EA070884E74FF0020E0EFA07F7DF
:1052D00048EA07087DE74FF0030E0EFA07F748EAA1
:1052E000070876E74FF0040E0EFA07F748EA0708BA
:1052F0006FE74FF0050E0EFA07F748EA070868E770
:105300004FF0060E0EFA07F748EA070861E700BFFC
:10531000003C01400000024000080240000C024036
:105320000010024000140240001802400038024001
:10533000001C02400369194214BF0120002070477D
:1053400002B9090481617047436901EA030221EA55
:10535000030141EA02418161704700BF002800F06B
:10536000A2812DE9F0410368DD0782B004462FD504
:105370009E498A6802F00C02042A00F0ED808A68D7
:1053800002F00C02082A00F0E3806368B3F5803F66
:1053900000F0EC80B3F5A02F00F07581934D2A68E2
:1053A00022F480322A602A6822F480222A60002BAC
:1053B00040F0E180FFF7EAFB064605E0FFF7E6FB79
:1053C000801B642800F201812B689B03F6D42368BC
:1053D0009F0728D5854A916811F00C0F00F0908046
:1053E000916801F00C01082900F08680E368002B29
:1053F00000F00E817E4B7D4E01221A60FFF7C6FB46
:10540000054605E0FFF7C2FB401B022800F2DD80E5
:1054100033689807F6D53368226923F0F80343EA26
:10542000C203336023681A0751D458072FD56F4A37
:10543000136C13F080537FD000256E4E3368D9056E
:1054400040F1B380A368012B00F0C380052B00F06E
:105450002C81664E326F22F001023267326F22F0E9
:1054600004023267002B40F0B980FFF78FFB41F256
:105470008838074605E0FFF789FBC01B404500F26E
:10548000A480336F9807F6D4002D40F00681A06900
:10549000C8B1564DAB6803F00C03082B00F0C9806F
:1054A000534B002202281A6600F00981FFF76EFBB9
:1054B000044605E0FFF76AFB001B022800F2858026
:1054C0002B689B01F6D4002002B0BDE8F08163692F
:1054D0000BB3474B454E0122C3F8802EFFF756FB16
:1054E000054604E0FFF752FB401B02286DD8736F9E
:1054F0009B07F7D5236898E7526856023FF576AFC9
:105500003A4A1268950744D5E268012A41D0012041
:1055100002B0BDE8F081364A344EC2F8803EFFF753
:1055200035FB054604E0FFF731FB401B02284CD851
:10553000736F9F07F7D4DDE70193136C43F080533B
:105540001364136C03F080530193019B012574E7EE
:105550004A6850027FF519AF244A126891037FF51B
:1055600037AF6268002A7FF433AFD0E71F4A136871
:1055700043F480331360FFF709FB1C4E054604E03B
:10558000FFF704FB401B64281FD833689A03F7D544
:105590001DE7164920690A6822F0F80242EAC002B3
:1055A0000A601A077FF541AF91E7336843F48073CF
:1055B0003360FFF7EBFA07463368DA053FF542AF91
:1055C000FFF7E4FAC01B0228F6D9032002B0BDE8B9
:1055D000F081064A136F43F001031367FFF7D6FA11
:1055E000024F064641F288380BE000BF0038024007
:1055F0000000474200700040FFF7C8FA801B40459A
:10560000E3D83B6F9B07F7D5002D3FF440AF44E054
:10561000424A434E1360FFF7B9FA054604E0FFF72C
:10562000B5FA401B0228D0D833689907F7D423680D
:10563000F9E601283FF448AF6B68E26903F48001A2
:1056400091427FF464AF226A03F03F0191427FF4FC
:105650005EAF616A47F6C0721A40B2EB811F7FF4F9
:1056600056AFA26A520803F44031013AB1EB024F3F
:105670007FF44DAFE26A03F07063B3EB026F14BFC7
:105680000120002020E7264B1A6842F480221A608D
:105690001A6842F480321A606DE7214A136C23F0D5
:1056A00080531364F3E6012070471D4B1A6F42F0DC
:1056B00004021A671A6F42F001021A678EE7FFF7B9
:1056C00065FA064605E0FFF761FA801B02283FF6FF
:1056D0007CAF2B689901F6D4D4E90731626A0B4399
:1056E00043EA8213D4E90A21520843EA0163013AEA
:1056F0000A4943EA024301226B600A66FFF746FA51
:10570000074D044605E0FFF741FA001B02283FF66B
:105710005CAF2B689A01F6D5D5E600BF0000474282
:1057200000380240164908B58B6803F00C03042BBF
:105730001BD0082B17D14A684B68496813F48003C3
:1057400002F03F0213D10F48C1F38811A1FB000101
:10575000FAF756FD0A4B5B68C3F3014301335B0064
:10576000B0FBF3F008BD074808BD074808BD064870
:10577000C1F388110023A1FB0001FAF741FDE9E71D
:10578000003802400024F40040787D01002800F039
:105790008780484A136803F007038B422DE9F041E4
:1057A0000D46044609D2CBB21370136803F0070309
:1057B0008B4202D00120BDE8F0812368980714D500
:1057C000590704D53C498A6842F4E0528A601A07B6
:1057D00004D539498A6842F460428A603649A06833
:1057E0008A6822F0F00202438A60DF0721D56268EE
:1057F000012A57D0931E012B2F4B1B684DD99907B7
:10580000D8D52D4EB36823F003031343B360FFF7DD
:10581000BDF941F28838074604E0FFF7B7F9C01B2D
:10582000404544D8B368626803F00C03B3EB820FC1
:10583000F3D1204A136803F00703AB4206D9EBB259
:105840001370136803F00703AB42B3D123685A0700
:1058500006D51949E0688A6822F4E05202438A605A
:105860001B0707D5144A2169936823F4604343EA70
:10587000C1039360FFF756FF0F4A104C926810491E
:10588000C2F303120346A25C0E48D34000680B60CB
:10589000FFF732F90020BDE8F0819801B1D489E723
:1058A00001207047044B1B689E03AAD482E70320A3
:1058B00081E700BF003C02400038024014E80008C5
:1058C000740A0020700A0020044B05499B68054AB1
:1058D0000868C3F38223D35CD84070470038024085
:1058E000740A002024E80008044B05499B68054A17
:1058F0000868C3F34233D35CD84070470038024095
:10590000740A002024E800082DE9F04782B01D4603
:105910000A9C0F4616468046FFF738F92C44A4EB44
:105920000009FFF733F92A4B1B68C3F3CB3309FB9C
:1059300003F382460193D8F8003001E06A1C0DD1D0
:105940009C6837EA04020CBF4FF0010C4FF0000CCA
:10595000B445F3D1002002B0BDE8F087FFF716F997
:10596000A0EB0A00484503D2019BFBB99946E2E748
:10597000D8E900315A68B1F5827F22F0E0025A601E
:1059800018D0D8F82820B2F5005F07D11A6822F4A1
:1059900000521A601A6842F400521A600122002371
:1059A00088F8512088F850300320D4E7019B013B50
:1059B0000193C0E7D8F80820B2F5004F02D0B2F545
:1059C000806FDED11A6822F040021A60D9E700BF6A
:1059D000740A00202DE9F04184B0884617460092F1
:1059E0000B46012202210446FFF78EFF38BB184AFE
:1059F0001568184AA2FB05356D0D4FF47A7202FB4B
:105A000005F562680395B2F5827F064607D10DE081
:105A1000039B2168013B03938B681B0602D5039B04
:105A2000002BF5D1304604B0BDE8F0810246009766
:105A3000434680212046FFF767FF0028F2D0636DC0
:105A4000032643F020033046636504B0BDE8F081CF
:105A5000740A0020819F5E1600285CD0416A70B5F0
:105A60000446002947D00023C0E9043394F85120AC
:105A70000023A36202F0FF00002A42D09C46256862
:105A8000A268022384F851302B6823F040032B6076
:105A9000636802F4044203F482731343E26802F47D
:105AA00000621343226902F002021343626902F0AA
:105AB00001021A43E36901F0100003F03806A169FE
:105AC000236A03F0800E01F4007313433343090C7F
:105AD00043EA0E0301F0040143EA0C0301432B6087
:105AE0006960EB69002023F400630122EB616065CB
:105AF00084F8512070BD4368B3F5827FB6D0C16190
:105B0000B4E784F850002046FEF7B2FED4E909134A
