:020000040800F2
:1000000000000220153C0008B53A0008BD3A00087F
:10001000C13A0008C53A0008C93A000800000000CB
:10002000000000000000000000000000B96A0008A5
:10003000B93A000800000000296B0008CD3A00081A
:10004000653C0008653C0008653C0008653C00080C
:1000500000000000653C0008653C0008653C0008A5
:10006000653C0008653C0008653C0008653C0008EC
:10007000E53A0008653C0008F13A0008653C0008D4
:10008000FD3A0008093B0008653C0008653C000893
:10009000653C0008653C0008653C0008653C0008BC
:1000A000653C0008653C0008653C0008653C0008AC
:1000B000653C0008653C0008653C0008653C00089C
:1000C000653C0008653C0008653C0008653C00088C
:1000D000653C0008393B0008453B0008513B0008DF
:1000E000653C0008653C0008653C0008653C00086C
:1000F000653C0008653C0008653C0008653C00085C
:10010000653C0008653C0008653C0008653C00084B
:10011000653C0008653C0008653C0008653C00083B
:10012000153B0008653C0008213B0008653C0008C1
:10013000653C0008653C0008653C0008653C00081B
:10014000653C0008653C0008653C0008653C00080B
:10015000653C0008653C00082D3B0008653C000834
:10016000653C0008653C0008653C0008653C0008EB
:10017000653C0008653C0008653C0008653C0008DB
:08018000653C0008653C000825
:1001C00010B5054C237833B9044B13B10448AFF391
:1001D00000800123237010BD2813002000000000C0
:1001E00094D1000808B5034B1BB103490348AFF392
:1001F000008008BD000000002C13002094D10008EE
:1002000053B94AB9002908BF00281CBF4FF0FF317D
:100210004FF0FF3000F074B9ADF1080C6DE904CE79
:1002200000F006F8DDF804E0DDE9022304B07047D1
:100230002DE9F047089D04468E46002B4DD18A4299
:10024000944669D9B2FA82F252B101FA02F3C2F1CC
:10025000200120FA01F10CFA02FC41EA030E94405D
:100260004FEA1C48210CBEFBF8F61FFA8CF708FB7E
:1002700016E341EA034306FB07F199420AD91CEB56
:10028000030306F1FF3080F01F81994240F21C8188
:10029000023E63445B1AA4B2B3FBF8F008FB1033D0
:1002A00044EA034400FB07F7A7420AD91CEB040405
:1002B00000F1FF3380F00A81A74240F207816444D5
:1002C000023840EA0640E41B00261DB1D44000235A
:1002D000C5E900433146BDE8F0878B4209D9002DBE
:1002E00000F0EF800026C5E9000130463146BDE848
:1002F000F087B3FA83F6002E4AD18B4202D38242B2
:1003000000F2F980841A61EB030301209E46002D60
:10031000E0D0C5E9004EDDE702B9FFDEB2FA82F2B5
:10032000002A40F09280A1EB0C014FEA1C471FFA13
:100330008CFE0126200CB1FBF7F307FB131140EAFA
:1003400001410EFB03F0884208D91CEB010103F1C7
:10035000FF3802D2884200F2CB804346091AA4B289
:10036000B1FBF7F007FB101144EA01440EFB00FE5D
:10037000A64508D91CEB040400F1FF3102D2A645C2
:1003800000F2BB800846A4EB0E0440EA03409CE761
:10039000C6F12007B34022FA07FC4CEA030C20FA0E
:1003A00007F401FA06F31C43F9404FEA1C4900FA2E
:1003B00006F3B1FBF9F8200C1FFA8CFE09FB1811AB
:1003C00040EA014108FB0EF0884202FA06F20BD91E
:1003D0001CEB010108F1FF3A80F08880884240F26E
:1003E0008580A8F102086144091AA4B2B1FBF9F0B2
:1003F00009FB101144EA014100FB0EFE8E4508D9AD
:100400001CEB010100F1FF346CD28E456AD9023831
:10041000614440EA0840A0FB0294A1EB0E01A14216
:10042000C846A64656D353D05DB1B3EB080261EB84
:100430000E0101FA07F722FA06F3F1401F43C5E95E
:10044000007100263146BDE8F087C2F12003D84094
:100450000CFA02FC21FA03F3914001434FEA1C47D6
:100460001FFA8CFEB3FBF7F007FB10360B0C43EAC8
:10047000064300FB0EF69E4204FA02F408D91CEB78
:10048000030300F1FF382FD29E422DD90238634476
:100490009B1B89B2B3FBF7F607FB163341EA034116
:1004A00006FB0EF38B4208D91CEB010106F1FF3865
:1004B00016D28B4214D9023E6144C91A46EA00465C
:1004C00038E72E46284605E70646E3E61846F8E6EE
:1004D0004B45A9D2B9EB020864EB0C0E0138A3E737
:1004E0004646EAE7204694E74046D1E7D0467BE718
:1004F000023B614432E7304609E76444023842E790
:10050000704700BF844641EA000313F003036DD136
:10051000403A41D351F8043B40F8043B51F8043BC6
:1005200040F8043B51F8043B40F8043B51F8043BCD
:1005300040F8043B51F8043B40F8043B51F8043BBD
:1005400040F8043B51F8043B40F8043B51F8043BAD
:1005500040F8043B51F8043B40F8043B51F8043B9D
:1005600040F8043B51F8043B40F8043B51F8043B8D
:1005700040F8043B51F8043B40F8043B51F8043B7D
:1005800040F8043B51F8043B40F8043B51F8043B6D
:1005900040F8043B403ABDD2303211D351F8043B0D
:1005A00040F8043B51F8043B40F8043B51F8043B4D
:1005B00040F8043B51F8043B40F8043B103AEDD2BC
:1005C0000C3205D351F8043B40F8043B043AF9D20D
:1005D000043208D0D2071CBF11F8013B00F8013BE0
:1005E00001D30B8803806046704700BF082A13D3ED
:1005F0008B078DD010F003038AD0C3F10403D21A05
:10060000DB071CBF11F8013B00F8013B80D331F838
:10061000023B20F8023B7BE7043AD9D3013A11F8B8
:10062000013B00F8013BF9D20B7803704B78437023
:100630008B78837060467047000000000000000067
:10064000A2EB0300704700BF02780B78012A28BF95
:100650009A42F5D16DE9044540EA0104CDE902670B
:100660006FF0000C4FEA447212B380EA010414F0F8
:10067000070F6AD100F0070420F0070004F003051B
:1006800021F007014FEAC505F0E8042314F0040F38
:10069000F1E804670CFA05F462EA040266EA04066B
:1006A0000AD063EA0403624667EA0407664603E089
:1006B000F0E80423F1E8046782FA4CF582EA0604C4
:1006C000A4FA8CF46CBB83FA4CF583EA0705A5FA0F
:1006D0008CF595B950E9022351E9026782FA4CF58D
:1006E00082EA0604A4FA8CF483FA4CF583EA07053F
:1006F000A5FA8CF52543DBD09CB92DBAB5FA85F463
:1007000024F0070427FA04F1DDE9026723FA04F371
:1007100003F0FF0001F0FF01FDE80445A0EB01003C
:10072000704724BAB4FA84F424F0070426FA04F1DA
:10073000DDE9026722FA04F202F0FF0001F0FF0196
:10074000FDE80445A0EB0100704714F0030F3CD115
:1007500010F0030428D150F8082B51F8083B82FA16
:100760004CF582EA0305A5FA8CF55DB950F8042C26
:1007700051F8043C82FA4CF582EA0305A5FA8CF59F
:10078000002DE8D02DBAB5FA85F424F0070423FA39
:1007900004F122FA04F202F0FF0001F0FF01FDE88B
:1007A0000445A0EB010070474FEAC40420F00300A9
:1007B00050F8082B21F0030151F8083B0CFA04F41F
:1007C00062EA040263EA0403C9E710F003041AD0E2
:1007D000A1EB040120F00300E40750F8042B06D03D
:1007E0000FD28B785FFAA2F4E41A06D12BB1CB7842
:1007F0005FFAB2F4E41A00D11BB920465DF8104B41
:10080000704701F1040150F8042BCC0721F00301DB
:1008100051F8043B48D824D222F07F4482FA4CF5A8
:1008200094EA1325A5FA8CF50AD165B951F8043B71
:1008300084EA0204B4EB036F0ED150F8042BEBE70B
:100840004FEA132355E035F07F454DD10878FDE898
:100850000445C0F1000070474FEA126203F0FF0345
:1008600047E002EA1C4482FA4CF594EA1345A5FAE3
:100870008CF50AD165B951F8043B84EA0204B4EB63
:10088000034F0CD150F8042BEBE74FEA134330E051
:1008900015EA1C4528D10B884FEA124229E04FEA9D
:1008A000124203EA1C4324E002F0FF0482FA4CF5F2
:1008B00094EA1365A5FA8CF50AD165B951F8043BA1
:1008C00084EA0204B4EB032F09D150F8042BEBE7C0
:1008D0004FEA13630DE015F0FF0F05D10B684FEAE7
:1008E000122223F07F4304E04FF00000FDE80445AE
:1008F000704712BA1BBA82FA4CF482EA0304A4FAD3
:100900008CF5B5FA85F402FA04F203FA04F34FEA1F
:100910001260FDE80445A0EB136070470000000082
:1009200000000000000000000000000000000000C7
:1009300000000000000000000000000000000000B7
:1009400090F800F06DE9024520F007016FF0000C0F
:1009500010F0070491F820F040F049804FF00004B7
:100960006FF00700D1E9002391F840F000F1080092
:1009700082FA4CF2A4FA8CF283FA4CF3A2FA8CF3CA
:100980004BBBD1E9022382FA4CF200F10800A4FA31
:100990008CF283FA4CF3A2FA8CF3E3B9D1E9042385
:1009A00082FA4CF200F10800A4FA8CF283FA4CF3BC
:1009B000A2FA8CF37BB9D1E9062301F1200182FA76
:1009C0004CF200F10800A4FA8CF283FA4CF3A2FA7C
:1009D0008CF3002BC6D0002A04BF04301A4612BA8A
:1009E000B2FA82F2FDE8024500EBD2007047D1E98D
:1009F000002304F00305C4F100004FEAC50514F01C
:100A0000040F91F840F00CFA05F562EA05021CBFEC
:100A100063EA050362464FF00004A9E70000000006
:100A200001F0FF01102A2BDB10F0070F08D010F89F
:100A3000013B013A8B422DD010F0070F42B3F6D1A3
:100A4000F0B441EA012141EA014122F007047FF0BC
:100A500000070023F0E80256083C85EA010586EA13
:100A6000010685FA47F5A3FA87F586FA47F6A5FA4F
:100A700087F68EB9EED1F0BC01F0FF0102F007025B
:100A800032B110F8013B013A83EA010313B1F8D106
:100A90000020704701387047002D06BF35460338E7
:100AA000073815F0010F07D1013015F4807F02BF20
:100AB000013015F4C03F0130F0BC0138704700BF71
:100AC00081F0004102E000BF83F0004330B54FEAFF
:100AD00041044FEA430594EA050F08BF90EA020F6C
:100AE0001FBF54EA000C55EA020C7FEA645C7FEAFF
:100AF000655C00F0E2804FEA5454D4EB5555B8BF22
:100B00006D420CDD2C4480EA020281EA030382EA92
:100B1000000083EA010180EA020281EA0303362D24
:100B200088BF30BD11F0004F4FEA01314FF4801CF7
:100B30004CEA113102D0404261EB410113F0004F09
:100B40004FEA03334CEA133302D0524263EB4303C0
:100B500094EA050F00F0A780A4F10104D5F1200E5E
:100B60000DDB02FA0EFC22FA05F2801841F10001B9
:100B700003FA0EF2801843FA05F359410EE0A5F18D
:100B800020050EF1200E012A03FA0EFC28BF4CF0BE
:100B9000020C43FA05F3C01851EBE37101F0004574
:100BA00007D54FF0000EDCF1000C7EEB00006EEB81
:100BB0000101B1F5801F1BD3B1F5001F0CD349080B
:100BC0005FEA30004FEA3C0C04F101044FEA445262
:100BD00012F5800F80F09A80BCF1004F08BF5FEAE9
:100BE000500C50F1000041EB045141EA050130BDC9
:100BF0005FEA4C0C404141EB0101013C28BFB1F5DB
:100C0000801FE9D291F0000F04BF01460020B1FA25
:100C100081F308BF2033A3F10B03B3F120020CDAF8
:100C20000C3208DD02F1140CC2F10C0201FA0CF0D6
:100C300021FA02F10CE002F11402D8BFC2F1200C3B
:100C400001FA02F120FA0CFCDCBF41EA0C019040F1
:100C5000E41AA2BF01EB0451294330BD6FEA04043A
:100C60001F3C1CDA0C340EDC04F11404C4F1200225
:100C700020FA04F001FA02F340EA030021FA04F337
:100C800045EA030130BDC4F10C04C4F1200220FA8E
:100C900002F001FA04F340EA0300294630BD21FACC
:100CA00004F0294630BD94F0000F83F4801306BF92
:100CB00081F480110134013D4EE77FEA645C18BF86
:100CC0007FEA655C29D094EA050F08BF90EA020F1D
:100CD00005D054EA000C04BF1946104630BD91EA15
:100CE000030F1EBF0021002030BD5FEA545C05D118
:100CF0004000494128BF41F0004130BD14F5800457
:100D00003CBF01F5801130BD01F0004545F0FE41CA
:100D100041F470014FF0000030BD7FEA645C1ABFFF
:100D2000194610467FEA655C1CBF0B46024650EA36
:100D3000013406BF52EA033591EA030F41F4002162
:100D400030BD00BF90F0000F04BF0021704730B5E8
:100D50004FF4806404F132044FF000054FF00001BD
:100D600050E700BF90F0000F04BF0021704730B57E
:100D70004FF4806404F1320410F0004548BF404253
:100D80004FF000013EE700BF42004FEAE2014FEAA8
:100D900031014FEA02701FBF12F07F4393F07F4F83
:100DA00081F06051704732F07F4208BF704793F086
:100DB0007F4F04BF41F40021704730B54FF4607499
:100DC00001F0004521F000411CE700BF50EA01029C
:100DD00008BF704730B54FF000050AE050EA010245
:100DE00008BF704730B511F0004502D5404261EBB5
:100DF00041014FF4806404F132045FEA915C3FF4F6
:100E0000D8AE4FF003025FEADC0C18BF03325FEA92
:100E1000DC0C18BF033202EBDC02C2F1200300FA43
:100E200003FC20FA02F001FA03FE40EA0E0021FA68
:100E300002F11444BDE600BF70B54FF0FF0C4CF456
:100E4000E06C1CEA11541DBF1CEA135594EA0C0F08
:100E500095EA0C0F00F0DEF82C4481EA030621EA43
:100E60004C5123EA4C5350EA013518BF52EA03357E
:100E700041F4801143F4801338D0A0FB02CE4FF030
:100E80000005E1FB02E506F00042E0FB03E54FF060
:100E90000006E1FB03569CF0000F18BF4EF0010E58
:100EA000A4F1FF04B6F5007F64F5407404D25FEA54
:100EB0004E0E6D4146EB060642EAC62141EA555107
:100EC0004FEAC52040EA5E504FEACE2EB4F1FD0C49
:100ED00088BFBCF5E06F1ED8BEF1004F08BF5FEAC7
:100EE000500E50F1000041EB045170BD06F0004679
:100EF00046EA010140EA020081EA0301B4EB5C0426
:100F0000C2BFD4EB0C0541EA045170BD41F480111D
:100F10004FF0000E013C00F3AB8014F1360FDEBF42
:100F2000002001F0004170BDC4F10004203C35DA1E
:100F30000C341BDC04F11404C4F1200500FA05F3A1
:100F400020FA04F001FA05F240EA020001F0004242
:100F500021F0004110EBD37021FA04F642EB0601B8
:100F60005EEA430E08BF20EAD37070BDC4F10C04E2
:100F7000C4F1200500FA04F320FA05F001FA04F2A6
:100F800040EA020001F0004110EBD37041F1000192
:100F90005EEA430E08BF20EAD37070BDC4F120059D
:100FA00000FA05F24EEA020E20FA04F301FA05F205
:100FB00043EA020321FA04F001F0004121FA04F2AD
:100FC00020EA020000EBD3705EEA430E08BF20EA7D
:100FD000D37070BD94F0000F0FD101F000464000B7
:100FE00041EB010111F4801F08BF013CF7D041EA39
:100FF000060195F0000F18BF704703F0004652003D
:1010000043EB030313F4801F08BF013DF7D043EA0D
:101010000603704794EA0C0F0CEA135518BF95EAC3
:101020000C0F0CD050EA410618BF52EA4306D1D14A
:1010300081EA030101F000414FF0000070BD50EA69
:10104000410606BF1046194652EA430619D094EAF3
:101050000C0F02D150EA013613D195EA0C0F05D1DD
:1010600052EA03361CBF104619460AD181EA030131
:1010700001F0004141F0FE4141F470014FF00000E9
:1010800070BD41F0FE4141F4780170BD70B54FF084
:10109000FF0C4CF4E06C1CEA11541DBF1CEA135504
:1010A00094EA0C0F95EA0C0F00F0A7F8A4EB0504E6
:1010B00081EA030E52EA03354FEA013100F08880DD
:1010C0004FEA03334FF0805545EA131343EA1263A6
:1010D0004FEA022245EA111545EA10654FEA00265B
:1010E0000EF000419D4208BF964244F1FD0404F514
:1010F000407402D25B084FEA3202B61A65EB030570
:101100005B084FEA32024FF480104FF4002CB6EB2C
:10111000020E75EB030E22BFB61A754640EA0C00AC
:101120005B084FEA3202B6EB020E75EB030E22BFEC
:10113000B61A754640EA5C005B084FEA3202B6EB2D
:10114000020E75EB030E22BFB61A754640EA9C00EC
:101150005B084FEA3202B6EB020E75EB030E22BFBC
:10116000B61A754640EADC0055EA060E18D04FEA7A
:10117000051545EA16754FEA06164FEAC30343EA1A
:1011800052734FEAC2025FEA1C1CC0D111F4801FE7
:101190000BD141EA00014FF000004FF0004CB6E7E0
:1011A00011F4801F04BF01430020B4F1FD0C88BF7F
:1011B000BCF5E06F3FF6AFAEB5EB030C04BFB6EB8A
:1011C000020C5FEA500C50F1000041EB045170BD7D
:1011D0000EF0004E4EEA113114EB5C04C2BFD4EBAA
:1011E0000C0541EA045170BD41F480114FF0000E2E
:1011F000013C90E645EA060E8DE60CEA135594EAAA
:101200000C0F08BF95EA0C0F3FF43BAF94EA0C0FAC
:101210000AD150EA01347FF434AF95EA0C0F7FF421
:1012200025AF104619462CE795EA0C0F06D152EA75
:1012300003353FF4FDAE1046194622E750EA410659
:1012400018BF52EA43067FF4C5AE50EA41047FF46A
:101250000DAF52EA43057FF4EBAE12E74FF0FF3CCF
:1012600006E000BF4FF0010C02E000BF4FF0010CA0
:101270004DF804CD4FEA410C7FEA6C5C4FEA430C19
:1012800018BF7FEA6C5C1BD001B050EA410C0CBF68
:1012900052EA430C91EA030F02BF90EA020F0020CA
:1012A000704710F1000F91EA030F58BF994208BF31
:1012B00090422CBFD8176FEAE37040F001007047EE
:1012C0004FEA410C7FEA6C5C02D150EA013C07D145
:1012D0004FEA430C7FEA6C5CD6D152EA033CD3D090
:1012E0005DF8040B704700BF8446104662468C468A
:1012F0001946634600E000BF01B5FFF7B7FF0028BD
:1013000048BF10F1000F01BD4DF808EDFFF7F4FFE5
:101310000CBF012000205DF808FB00BF4DF808ED70
:10132000FFF7EAFF34BF012000205DF808FB00BF93
:101330004DF808EDFFF7E0FF94BF012000205DF8B5
:1013400008FB00BF4DF808EDFFF7CEFF94BF01206A
:1013500000205DF808FB00BF4DF808EDFFF7C4FF63
:1013600034BF012000205DF808FB00BF4FEA410CAC
:101370007FEA6C5C02D150EA013C0AD14FEA430C8F
:101380007FEA6C5C02D152EA033C02D14FF00000CC
:1013900070474FF0010070474FEA410212F500120A
:1013A00015D211D56FF47873B3EB625212D94FEAAC
:1013B000C12343F0004343EA505311F0004F23FA96
:1013C00002F018BF404270474FF00000704750EAEB
:1013D000013005D111F0004008BF6FF000407047A8
:1013E0004FF00000704700BF08B500F0EDFAFEE7CF
:1013F00070B5274CA278217884B06D462244002332
:101400000093D2786B60EB60E3688DF80120029363
:1014100062788DF800104FF460738DF80320ADF8FA
:101420000C3019B152BB01238DF8023094F83430DE
:101430001BB1009A636A9A4213D0284600F088FBD9
:1014400028B984F8350084F8360004B070BD95E8FA
:101450000F00104E86E80F00012384F8343004B0EA
:1014600070BD019AA36A9A42E7D1029AE36A9A424E
:10147000E3D1039A236B9A42DFD1E6E7A06800F03C
:10148000B7FB031E18BF012301908DF80230CDE792
:1014900000000020240000202DE9F04FC7B004F028
:1014A0000BFE0D90FFF7A4FFBA4CDFF83CA3DFF86A
:1014B0003C83DFF83CB3002511A800F0FBFA20B113
:1014C0009DF84430022B00F02C82002384F8353044
:1014D00084F8363000F0ACFDC30744BF01232380FD
:1014E000860744BF02232380410740F1F481032390
:1014F0000207238004D5A378013303F00303A3700C
:10150000012000F063FD0F2004F050FD002000F0EA
:101510005DFD002384F834300EA89F4E00F0C4FB1C
:1015200048B39DF83830013B072B00F22D82DFE8ED
:1015300013F098019201890180016F016301280174
:1015400008000F9B022B00F0BA81042B00F00B82E5
:10155000062B00F00C82082B08BF032100F0B0819D
:10156000304600F0CDFC00230EA884F8343000F0A3
:101570009BFB0028D5D10135EDB2FFF739FF092DCE
:1015800040F2FA8094F835206378002A14BF4FF4B3
:10159000FC674FF47847002B00F0B381A668002069
:1015A00001F012FD1F25002108460E230095A02200
:1015B00001F016FD794A00954FF6FF7302210420D1
:1015C00001F01EFD0020764A009040F2FF731421C6
:1015D00001F016FD2378013BDBB2022B4FF0000532
:1015E00094BF5AF823206F4A00954FF6FF731421D9
:1015F000302001F005FD6378002B40F08981002543
:10160000694A009540F2FF732421284601F0F8FC56
:10161000A378009518F80320DFF8D8914FF6FF73F0
:101620002421302001F0FEFC604A009540F2FF7357
:101630002421502001F0E4FCA378009523442421C8
:10164000DA7878204FF6FF7301F0ECFC584A0095E9
:1016500040F2FF733421284601F0D2FC32464FF6A7
:10166000FF7334213020009501F0DCFC514A0095D5
:1016700048F210433421782001F0C2FC4E4A009514
:1016800040F2FF734421284601F0BAFC637C4B4EC4
:101690000095AB4215BF4FF4FC634FF478433246DC
:1016A0004A464421302001F0ABFC454A009540F207
:1016B000FF734421582001F0A3FCA37C0095AB42AA
:1016C0000BBF4A4632464FF4FC634FF47843442143
:1016D000782001F095FC3B4A009540F2FF735421BD
:1016E000284601F08DFC94F8202000954FF6FF73FA
:1016F0005421282001F096FC334A009548F210430B
:101700005421482001F07CFC94F8212000954FF6EC
:10171000FF735421582001F085FC2C4A009540F2BB
:10172000FF736421284601F06BFC94F835002849CA
:10173000284A0095A84208BF0A463B46642130204B
:1017400001F05EFC94F836302349244A0095AB4200
:1017500008BF0A464FF6E0734FF0640118BF4FF41C
:10176000FC63702001F04CFC1D4A009548F21043C8
:101770007421284601F044FC14210DA804F0D4FB88
:101780009AE60F9800F04CFA03461648E36000F022
:10179000B7FBE8E600000020B0D20008CCD2000879
:1017A000DCD20008B0D10008ECD20008F4D2000866
:1017B000FCD2000804D3000808D30008B8D1000800
:1017C00010D3000814D3000818D300081CD3000855
:1017D000C8D10008C0D10008D0D10008D8D1000875
:1017E00024D3000898D2000858D3000864D3000816
:1017F00080F0FA02BCD100080F9B654AA3F57A710C
:10180000914296BF63486448A36000F079FBAAE662
:101810000F9B022B00F0A180042B00F0A680062B6A
:1018200000F0A780082B00F0A6805C4800F068FB61
:1018300099E69DF839205A4822700123637000F020
:101840005FFB90E69DF839205648227000236370B4
:1018500000F056FB87E601235348238000F050FB3D
:1018600081E66278002A40D02378A168013BDBB290
:10187000022B37D94D4B01220291A178009218F822
:1018800001100191217C0A91E17C099194F83510B5
:10189000089194F836100791A17C069194F82110D4
:1018A000059194F820100491617C0391404AC02175
:1018B00016A805F0ADFB16A800F022FB53E60021A8
:1018C000109B5A1E7E2A3FF64BAE21443948CB70FE
:1018D00000F016FB47E603073FF50DAE00283FF486
:1018E0001BAE0DE65AF82330C6E7A16909B1BBFB70
:1018F000F1F12378013BDBB2022BF3D92B4B002211
:10190000BAE7A669002E3FF44AAEBBFBF6F646E600
:10191000294A00954FF6E0731421782001F070FBFE
:101920006DE69DF8473084F8363011AF012384F816
:1019300035300FCF214E94F834C00FC63B6833606A
:10194000BCF1000F3FF4C6ADBDF85620A38C9A42FF
:1019500013D0002384F83430BCE500231848A3706A
:1019600000F0CEFAFFE50121AAE70123F6E7022104
:10197000A6E70223F2E70323F0E79DF8482094F856
:1019800027309A42E5D1A5E50E4800F0B9FAEAE51C
:10199000B882010080D200088CD2000868D200080A
:1019A0005CD2000850D2000840D20008B0D1000834
:1019B000DCD10008A4D20008E4D200081000002006
:1019C00074D20008BCD2000800B583B002F070F9F0
:1019D00000F074FB00F022FB00F0C0FB00F030F8D8
:1019E00000F050F900F04CFF0A2002F08DF90120C0
:1019F00000F058F8142002F087F9002001F0E4FA12
:101A000000230222CDE90023084909484FF440721F
:101A100004F086F9012801D000F0F4FB04F0ECFAA0
:101A200003B05DF804EB00F0EDBB00BF38D3000855
:101A30009914000800F0E6BB00F0E4BB704700BF5B
:101A400070B586B00024144B009405941A6B1348AB
:101A500042F002021A631B6B03F002030225012607
:101A6000009301A9009BCDE90156CDE9036502F081
:101A7000F9FB01A909480196CDE90245049402F059
:101A8000F1FB22462946054802F012FD0449204692
:101A900001F03AFB06B070BD00380240000402407D
:101AA000404B4C0002460221014802F001BD00BF3C
:101AB00000040240F0B5002489B0CDE90044CDE92E
:101AC0000244CDE90444CDE9064400283CD0012677
:101AD000054630468DF8006001F00EFB10221423FD
:101AE0000DEB0201684601F061FB0746204601F05C
:101AF00003FB4FBB9DF81130F62B25D19DF8133019
:101B00009DF81210297003EA06016970C3F34001C1
:101B1000A970C3F38001E970C3F3C00305999DF870
:101B20001E202B71A9609DF81C300699E9602B746A
:101B30009DF81D109DF81F30697402F007023046B1
:101B4000AA74EB7409B0F0BD002009B0F0BD00BF6D
:101B500010B588B00023CDE90333CDE905330793F1
:101B600000283DD0C378047842788DF801401021D8
:101B70008DF800108DF8022081789BBBD0E90123FD
:101B800090F80CC08DF80310140A417B8DF80420E6
:101B9000100C120E8DF807201A0A8DF806008DF829
:101BA000083001208DF809201A0C1B0E8DF80CC08E
:101BB0008DF805408DF80A208DF80B308DF80D104A
:101BC00001F09AFA102214230DEB0201684601F08D
:101BD000EDFA0446002001F08FFAB4FA84F04009CF
:101BE00008B010BD41F00201C8E700BF00000000CE
:101BF00008B5094B421E9A4207D805A3D3E9002332
:101C000001460648FEF7FCFA08BD002008BD00BFEB
:101C100080F0FA02000000003F0D030040787D01D3
:101C200008B50849C308A1FB03239B084FF4B4710E
:101C300001FB13014FF4B47200230020FEF7E0FA19
:101C400008BD00BF176CC11610B50B490446FEF75E
:101C5000FBFC68B109492046FEF7F6FC50B1084983
:101C60002046FEF7F1FC002814BF0020032010BD21
:101C7000012010BD022010BD40D3000848D3000849
:101C800050D3000808B5064B00200121187001F060
:101C900065FB01F003FCBDE80840024801F06CBCA4
:101CA0009413002068D30008002800F0DE802DE99E
:101CB000F047844E844C854F82B0054601220DF1D9
:101CC0000701304601F014FC012840F088809DF89F
:101CD00007300D2B08D00A2B06D022784E2A61D867
:101CE000511CBB542170E9E72378002BE6D0774ADA
:101CF0004FF0000C07F803C0511C581EDFF8FCC160
:101D000051FA80F012F8013B1CF8031001F00301B6
:101D1000022904BF203BDBB2824202F8013CF1D130
:101D20004FF00008C5E901886949A5F800803846E8
:101D300084F8008005F0B0F9814678B364494046E4
:101D400005F0AAF9624903464046984605F0A4F911
:101D5000604982464846FEF777FC48BB01232B705A
:101D6000012002B0BDE8F0875B494846FEF76CFCF5
:101D700000283BD059494846FEF766FC002876D13A
:101D8000B8F1000F49D0052301462B7040460A22C6
:101D900005F05AFA68602B78002BE1D1504801F029
:101DA000EBFB8BE700234F48237001F0E5FB85E751
:101DB0004D494846FEF748FCA8B14C494846FEF755
:101DC00043FC0028D0D1B8F1000F1BD04046FFF7EC
:101DD0003BFF68700028DED003232B70C0E7002093
:101DE00002B0BDE8F08702232B70B9E7B8F1000F0D
:101DF0000ED04046FFF728FF68700028CBD00423A0
:101E00002B70ADE734494846FEF71EFC002852D13E
:101E100032494846FEF718FC48BB35494846FEF7AC
:101E200013FC002834D133494846FEF70DFC002846
:101E3000B1D048463049FEF707FC81460028AAD1B8
:101E4000B8F1000FA7D0BAF1000FA4D008232B706F
:101E50000A224946404605F0F7F9494668600A22D9
:101E6000504605F0F1F9A86095E700207047204939
:101E70004846FEF7E9FB58B9B8F1000FD3D0062366
:101E800001462B7040460A2205F0DEF9686082E7C1
:101E900018494846FEF7D8FB0028CAD1B8F1000F10
:101EA0003FF479AF072301462B7040460A2205F024
:101EB000CBF968606FE709494846FEF7C5FB002883
:101EC000ABD0B0E7A01600209413002044130020EC
:101ED00078D300087CD30008E4D2000894D300082B
:101EE000BCD20008A4D3000884D300088CD3000817
:101EF000FCD2000898D30008A0D30008D1D5000870
:101F000008B101F039BB704710B5002486B0CDE9A7
:101F10000344114B009405941A6B104842F00402DC
:101F20001A631B6B03F0040300930C23019301233A
:101F300001A9029302230493009A02F093F9224626
:101F40000648042102F0B4FA04482246082102F0AF
:101F5000AFFA06B010BD00BF0038024000080240D2
:101F6000012800D97047044B03EBC00253F830003E
:101F7000918802F0A1BA00BFD4D3000830B5002484
:101F800087B0CDE903440F4B009405941A6B0E48BB
:101F900042F008021A631B6B03F0080300930099D8
:101FA00002234FF40045012201A9CDE90152049317
:101FB00002F058F904482246294602F079FA07B09F
:101FC00030BD00BF00380240000C024002464FF412
:101FD0000041014802F06CBA000C024010B5002329
:101FE00086B0CDE90233CDE904330A4A0093136B7E
:101FF000094843F010031363136B03F0100301222D
:1020000000933C2401A9009B0194039202F02AF959
:1020100006B010BD003802400010024008B5FFF7BE
:1020200073FFFFF7ABFFBDE80840FFF7D7BF00BF66
:102030002DE9F0471D481E4E1E4F1F4D0024202144
:10204000A146A0464FF0010A02F02CFA98B92B786D
:10205000022B03F101031CD82B700134042C07F16F
:10206000010705F1010511D0B068B189083602F009
:1020700019FA0028EBD00134042C85F8008087F889
:10208000008005F1010507F10107EDD14846BDE8E3
:10209000F0873B78002BE0D10AFA04F349EA030900
:1020A00087F800A01FFA89F9D7E700BF00100240A7
:1020B000B4D300089C1300209813002030B50023EF
:1020C00093B0CDE90833CDE90A33CDE90133CDE949
:1020D0000333204A00930593136C43F08053136439
:1020E000136C03F08053012200934FF48033CDE949
:1020F000062302214FF480001923CDE90C104FF480
:10210000A8720E9306A80723CDE90F21009C119316
:1021100002F0DCF9B8B9104A1368022143F4804395
:102120000F2513600024CDE901514FF4A0524FF464
:10213000805301A80521CDE90342059302F0DEFB9F
:1021400020B913B030BD00F05DF8E4E700F05AF8B4
:1021500013B030BD003802400070004000B583B0BD
:10216000274B00220092186B40F400101863186B84
:1021700000F40010009000980192186B40F4800069
:1021800018631B6B03F48003062101931020019B4D
:1021900001F0DEFD102001F019FE002206211120C1
:1021A00001F0D6FD112001F011FE002206210C20C5
:1021B00001F0CEFD0C2001F009FE002206210E20C8
:1021C00001F0C6FD0E2001F001FE0022062138209C
:1021D00001F0BEFD382001F0F9FD002206213A2071
:1021E00001F0B6FD3A2001F0F1FD00224620062163
:1021F00001F0AEFD462003B05DF804EB01F0E6BD52
:102200000038024000B583B072B6084C00250120AA
:10221000FFF7A6FE0195019BA342F8D8019B01336D
:102220000193019BA342F9D9F1E700BF3F0D0300E1
:102230002DE9F041C04DC14C4FF48036AE614FF4F2
:102240008006A6614FF0080E2A244FF080474FF019
:10225000005C4FF400584FF4804614F0800F0EF1EC
:10226000FF3EAF614FEA440414BFC5F81880C5F8BB
:1022700018C01EF0FF0EAE61E4B2EED10126AE61D1
:10228000AE4C4FF48036AE614025A5610824AA4DBE
:1022900020FA04FE4FF080474FF0005C4FF40058E6
:1022A0004FF480461EF0800F04F1FF34AF614FEA17
:1022B0004E0E14BFC5F81880C5F818C014F0FF04FE
:1022C000AE615FFA8EFEEDD10124AC615FFA80FC55
:1022D0004FF480349948AC6140248461964C0820C6
:1022E0004FF080464FF000574FF4005E4FF48045AA
:1022F0001CF0800F00F1FF30A6614FEA4C0C14BFB8
:10230000C4F818E0A76110F0FF00A5615FFA8CFC2B
:10231000EED10120A0614FF480358848A5614024AA
:102320008461854C4FEA122C08204FF080464FF014
:1023300000574FF4005E4FF480451CF0800F00F111
:10234000FF30A6614FEA4C0C14BFC4F818E0A76137
:1023500010F0FF00A5615FFA8CFCEED10120A061B6
:102360004FF48030A06100F1804000F588304024B7
:102370008461714CD2B208204FF080464FF0005774
:102380004FF4005C4FF4804512F0800F00F1FF30F5
:10239000A6614FEA420214BFC4F818C0A76110F04A
:1023A000FF00A561D2B2EFD10120A061634A4FF4D2
:1023B0008030A0614FF480005F4C90614FF0804608
:1023C00008202B224FF000574FF4005C4FF480455B
:1023D00012F0800F00F1FF30A6614FEA420214BFF5
:1023E000C4F818C0A76110F0FF00A561D2B2EFD108
:1023F00001204FF48032A061A26102F1804202F517
:102400008832402494614C4C080A08224FF08046E0
:102410004FF000574FF4005C4FF4804510F0800FF0
:1024200002F1FF32A6614FEA400014BFC4F818C0A1
:10243000A76112F0FF02A561C0B2EFD10120A06137
:102440003E4A4FF48030A061402400F18040946106
:1024500000F58430C9B208224FF080454FF0005695
:102460004FF400574FF4804411F0800F02F1FF3217
:1024700085614FEA410114BF8761866112F0FF0256
:102480008461C9B2F0D12D4A01214FF480348161B9
:102490008461402428489461190A08224FF080453D
:1024A0004FF000564FF400574FF4804411F0800F66
:1024B00002F1FF3285614FEA410114BF87618661F5
:1024C00012F0FF028461C9B2F0D11C4A01244FF41A
:1024D000803184618161402001F180419061DBB2F3
:1024E00001F5843108224FF080444FF000554FF43D
:1024F00000564FF480401F0602F1FF328C614FEA14
:1025000043034CBF8E618D6112F0FF028861DBB224
:10251000F1D10A4B01244FF480308C614FF48002DA
:10252000886105499A614FF0804408222C234FF0BE
:1025300000554FF4005603E000080240001002402E
:102540004FF480401F0602F1FF328C614FEA4303D3
:102550004CBF8E618D6112F0FF028861DBB2F1D158
:1025600001238B61BDE8F0812DE9F0431C4683B067
:102570008318A02BBDF828600746884600F38180A9
:102580001546013A024492B208EB0403802B73DC37
:10259000631E43449BB2CDE9002301F0AFFB4FF033
:1025A000E02105FB04F44D69896915F1010CDDE9B1
:1025B00000236BD04FF47A75ACEB010105FB01F100
:1025C000B1FBFCF105FB001938464146FFF730FE30
:1025D00033494FF480338B6103F1804303F5883333
:1025E0004022370A5FFA86FE2E4E9A614FF0000CA9
:1025F0004FF480403A46082312F0800F03F1FF3376
:1026000014BF35464FF0C045520013F0FF038D61F3
:10261000D2B28861F0D17246082312F0800F03F124
:10262000FF3314BF35464FF0C045520013F0FF038F
:102630008D61D2B28861F0D10CF1010C6445D9D121
:1026400001238B6101F05AFB4FF0E0235A699B692B
:10265000013220D04FF47A71D31A01FB03F3B3FB9C
:10266000F2F301FB00331049104AA3EB09050D609A
:10267000146003B0BDE8F083C8F18004A4B27F23E6
:1026800089E7C0F1A005ADB29F227DE74FF47A75CE
:1026900005FB00F998E74FF47A7300FB03F3E2E7D8
:1026A0000008024000200040401600204416002090
:1026B0002DE9F04F1F4683B01378BDF83060002B32
:1026C0007BD000F10803A02B77D800230124944687
:1026D00001E0A02D08D89E46A3B25C1C1CF8032084
:1026E00000EBC405002AF4D1002B66D00CF1FF32B8
:1026F0000192421E0CEB0E0402EBC30201F109032E
:10270000009492B29BB22E4CDFF8BC80FFF790FD94
:102710004FF480322B4BA26140229A6100254FF08A
:102720000109DDF804A009FA05F91AF8010F00F013
:10273000C1FC002286464FF4804032E0042A32D8A1
:102740001EF8023013EA090F0CBF33463B464FEA2E
:10275000132C08211CF0800F01F1FF3114BFC34678
:102760004FF0C04B4FEA4C0C11F0FF01C4F818B009
:102770005FFA8CFCA061EDD1DBB2082113F0800F71
:1027800001F1FF3114BFC4464FF0C04C5B0011F0A3
:10279000FF01C4F818C0DBB2A061EFD10132082AF2
:1027A00003D0062DCAD93346D1E7009B9A45BCD148
:1027B00001350A2DB3D10123A36103B0BDE8F08F29
:1027C00000080240001002400020004070B50024C4
:1027D00088B0CDE90344CDE90544264B0194079424
:1027E0001A6B254D254E42F004021A631A6B02F053
:1027F00004020192019A02941A6B42F010021A63C9
:102800001B6B012203F01003029311462846029B22
:1028100001F04EFE28460122022101F049FE284621
:1028200001224FF4005101F043FE284601224FF4EB
:10283000804101F03DFE284601224FF4004101F0A5
:1028400037FE01223046402101F032FE012304937D
:102850000323CDE90543284603A94EF2030303935E
:1028600001F000FD402303A93046039301F0FAFC78
:1028700008B070BD0038024000080240001002405D
:10288000F0B5B04C83B0FFF7A1FF01224FF4004137
:10289000204601F00DFE0A2001F036FA00224FF426
:1028A0000041204601F004FE0A2001F02DFA012229
:1028B0004FF40041204601F0FBFD782001F024FA9E
:1028C000A14B4FF480324FF48001A2614FF0804061
:1028D00099610822B4234FF000554FF400564FF48D
:1028E00080411F0602F1FF32A0614FEA43034CBF53
:1028F000A661A56112F0FF02A161DBB2F1D1924B9A
:1029000001204FF48031A0614022A16101F180419A
:102910009A6101F58431082207234FF080444FF07B
:1029200000554FF400564FF480401F0602F1FF326D
:102930008C614FEA43034CBF8E618D6112F0FF0240
:102940008861DBB2F1D1804B01244FF480308C617F
:102950004FF4800288617B499A614FF080440822DD
:10296000B1234FF000554FF400564FF480401F063E
:1029700002F1FF328C614FEA43034CBF8E618D61DF
:1029800012F0FF028861DBB2F1D16F4B01244FF4EA
:1029900080308C61402288616A499A614FF080449E
:1029A000082214234FF000554FF400564FF4804096
:1029B0001F0602F1FF328C614FEA43034CBF8E6168
:1029C0008D6112F0FF028861DBB2F1D15E4B012410
:1029D0004FF480308C614FF48002886159499A61CC
:1029E0004FF080440822FF234FF000554FF400566B
:1029F0004FF480401F0602F1FF328C614FEA43031F
:102A00004CBF8E618D6112F0FF028861DBB2F1D1A3
:102A10004D4B01244FF480308C614022886149493C
:102A20009A614FF080440822A5234FF000554FF4DF
:102A300000564FF480401F0602F1FF328C614FEACE
:102A400043034CBF8E618D6112F0FF028861DBB2DF
:102A5000F1D13D4B01244FF480308C614FF4800262
:102A6000886138499A614FF080440822EC234FF086
:102A700000554FF400564FF480401F0602F1FF321C
:102A80008C614FEA43034CBF8E618D6112F0FF02EF
:102A90008861DBB2F1D12C4B01244FF480308C6182
:102AA0004022886127499A614FF080440822892397
:102AB0004FF000554FF400564FF480401F0602F1CE
:102AC000FF328C614FEA43034CBF8E618D6112F07F
:102AD000FF028861DBB2F1D11B4B01244FF480303F
:102AE0008C614FF48002886116499A614FF08044EE
:102AF0000822ED234FF000554FF400564FF480406C
:102B00001F0602F1FF328C614FEA43034CBF8E6116
:102B10008D6112F0FF028861DBB2F1D10A4B012412
:102B20004FF480308C614022886106499A614FF0F1
:102B30008044082225234FF000554FF400564FF4EF
:102B4000804003E000080240001002401F0602F12E
:102B5000FF328C614FEA43034CBF8E618D6112F0EE
:102B6000FF028861DBB2F1D1AF4B01244FF480301A
:102B70008C614FF480028861AC499A614FF08044C7
:102B80000822EE234FF000554FF400564FF48040DA
:102B90001F0602F1FF328C614FEA43034CBF8E6186
:102BA0008D6112F0FF028861DBB2F1D19E4B0124EE
:102BB0004FF480308C61402288619C499A614FF0CB
:102BC0008044082222234FF000554FF400564FF462
:102BD00080401F0602F1FF328C614FEA43034CBF75
:102BE0008E618D6112F0FF028861DBB2F1D18E4BF4
:102BF00001244FF480308C614FF4800288618B494E
:102C00009A614FF080440822F6234FF000554FF4AC
:102C100000564FF480401F0602F1FF328C614FEAEC
:102C200043034CBF8E618D6112F0FF028861DBB2FD
:102C3000F1D17D4B01244FF480308C6140228861BA
:102C40007A499A614FF08044082210234FF00055D2
:102C50004FF400564FF480401F0602F1FF328C61A2
:102C60004FEA43034CBF8E618D6112F0FF02886111
:102C7000DBB2F1D16C4B01244FF480308C614FF406
:102C80008002886169499A614FF080440822C42318
:102C90004FF000554FF400564FF480401F0602F1EC
:102CA000FF328C614FEA43034CBF8E618D6112F09D
:102CB000FF028861DBB2F1D15B4B01244FF480301D
:102CC0008C614022886159499A614FF08044082202
:102CD0000D234FF000554FF400564FF480401F066F
:102CE00002F1FF328C614FEA43034CBF8E618D616C
:102CF00012F0FF028861DBB2F1D14B4B01244FF49B
:102D000080308C614FF48002886148499A614FF0AD
:102D100080440822C5234FF000554FF400564FF46D
:102D200080401F0602F1FF328C614FEA43034CBF23
:102D30008E618D6112F0FF028861DBB2F1D13A4BF6
:102D400001244FF480328C6140208A6102F180427C
:102D5000986102F5843208234FF080444FF0005010
:102D60004FF48041013B13F0FF0394619061916146
:102D7000F8D12D4B01244FF4803194614FF4800041
:102D8000916101F18041986101F584310822C623E7
:102D90004FF080444FF000554FF400564FF4804000
:102DA0001F0602F1FF328C614FEA43034CBF8E6174
:102DB0008D6112F0FF028861DBB2F1D11A4B012460
:102DC0004FF480308C614022886118499A614FF03D
:102DD000804408220E234FF000554FF400564FF464
:102DE00080401F0602F1FF328C614FEA43034CBF63
:102DF0008E618D6112F0FF028861DBB2F1D10A4B66
:102E000001248C614FF480304FF48002074C8861BC
:102E10004FF000559A614FF08040082211234FF483
:102E200000564FF4804103E00010024000080240C9
:102E30001F0602F1FF32A0614FEA43034CBFA661B7
:102E4000A56112F0FF02A161DBB2F1D10123A36100
:102E50000A2000F059FF5A4B5A494FF480324FF480
:102E60008000A2614FF00055986108223A234FF08C
:102E700080444FF400564FF480401F0602F1FF32A9
:102E80008C614FEA43034CBF8E618D6112F0FF02EB
:102E90008861DBB2F1D14A4B01244FF480308C6160
:102EA0004022886147499A614FF0804408220523F7
:102EB0004FF000554FF400564FF480401F0602F1CA
:102EC000FF328C614FEA43034CBF8E618D6112F07B
:102ED000FF028861DBB2F1D1394B01244FF480301D
:102EE0008C614FF48002886136499A614FF08044CA
:102EF000082236234FF000554FF400564FF480401F
:102F00001F0602F1FF328C614FEA43034CBF8E6112
:102F10008D6112F0FF028861DBB2F1D1284B0124F0
:102F20004FF480308C614022886126499A614FF0CD
:102F30008044082220234FF000554FF400564FF4F0
:102F400080401F0602F1FF328C614FEA43034CBF01
:102F50008E618D6112F0FF028861DBB2F1D1184BF6
:102F600001248C614FF480304FF48002154C88614D
:102F700008259A614FF0804029234FF000564FF406
:102F800000574FF48042190605F1FF31A0614FEA66
:102F900043034CBFA761A66111F0FF05A261DBB23C
:102FA000F1D10122A2610748022101F081FA0095C6
:102FB0008023A02229462846FFF7D6FA03B0F0BDA9
:102FC000001002400008024000B583B000210090CC
:102FD0008023A0220846FFF7C7FA03B05DF804FB80
:102FE00070B49F28BDF80C6007D87F2905D822B19E
:102FF0001BB1039670BCFFF7B7BA70BC704700BF37
:1030000010B5BDF8084062B19F28864609D801F185
:103010000A0CBCF1800F04D80294BDE81040FFF701
:1030200047BB10BD2DE9F04389B0214FBDF840608A
:103030000024A7FB025E4FEADE0E0EEB8E0C254647
:10304000A2EB4C0C20340DEB040990460CF1300C33
:103050006C1C5FFA8CFCB8F1090F09F818CCE4B2CB
:103060007246E6D805AA04B3AE46144601E017F846
:1030700018CC04F801CB0EF1FF3E5FFA8EFE0EF184
:103080002007BEF1FF0F6F44F1D101351544002434
:103090009F282C7006D801F10A04802C02D80096D3
:1030A000FFF706FB09B0BDE8F0831546EFE700BF68
:1030B000CDCCCCCCA0F16103192B08D8A0F1200312
:1030C000DBB20848203B03EB8303184470472038E9
:1030D000C3B23A2B9DBF034B00EB8000C0180148E0
:1030E000704700BFE4D3000802464FF40061014876
:1030F00001F0DEB90000024080F001021021014819
:1031000001F0D6B90000024070B50E46054601F048
:10311000A3FC214B214C224A002E08BF1E464FF42F
:103120008273012DC4E9002331D0022D4FF000033A
:103130000CBF4FF400421A46A2604FF40072C4E97B
:103140000532C4E90333174B174903F11C0C002265
:1031500001E053F8042B382A06D831F812501DB17B
:10316000B0FBF5F5B54202D99C45F2D138220023D7
:1031700007210A48E162C4E90723C4E9093301F0E1
:1031800023FD00B970BDBDE87040FFF73BB80023D8
:103190004FF48062D0E700BF40420F004816002085
:1031A0000030014084D500080CD5000800B583B07C
:1031B00084460093044813460A46614601F066FDC2
:1031C00003B05DF804FB00BF48160020B1F5807F16
:1031D000B0F8042300F28C8030B592B233D0914223
:1031E00030D040F28680441D8B1A02F1040C144446
:1031F0005A1E844414FA82F201250DE0B0F806E369
:103200009CF8004010FA8EFE0CF1010C62458EF81D
:103210000441A0F8063313D0B0F80633B0F808E341
:1032200001339BB2B3F5007F28BF00231FFA8EFE47
:103230009E45E3D10CF1010C624580F80A53EBD1B5
:10324000A0F8041330BD002AFCD0FF2A98BF00214B
:1032500052D801240EE0B0F806C39EF804E0013213
:1032600010FA8CFC92B2B2F5807F8CF804E1A0F8E1
:10327000063316D0B0F80633B0F808C301339BB25A
:10328000B3F5007F28BF00231FFA8CFC9C4500EBA0
:10329000020EE0D1013292B2B2F5807F80F80A438B
:1032A000E8D149B34B1E441D00F1040C14FA83F419
:1032B00001250DE0B0F806239CF800E010FA82F238
:1032C00082F804E1A0F806330CF1010C6445B7D094
:1032D000B0F80633B0F8082301339BB2B3F5007F92
:1032E00028BF002392B29A42E4D180F80A53EBE758
:1032F0007047FF2AADD9D4E70021A1E70E4B9842D1
:1033000014D090B103680D4A93420FD00C4A9042FA
:103310000ED00C4A93420BD00B4A90420AD00B4A73
:103320000B48934218BF0020704770470948704708
:103330000948704706487047A01600200010014059
:10334000E8160020004400403017002000480040EC
:10335000540600203800002048030020012838B51A
:103360002FD002281E4B14BF0C22042201291A6000
:103370002CD0022914BF0C2104211A481A4C1B4DD1
:1033800005600023C0E90233C0E9063303614FF44E
:10339000E13342612160436001F01EFEE0B9144850
:1033A0002268144C00234FF4E131C0E90041C0E928
:1033B0000233C0E90432C0E9063301F00DFE38B92A
:1033C00038BD074B082201291A60D2D10821D4E761
:1033D000BDE83840FEF716BFFEF714FFDFE700BF79
:1033E00044030020A01600206009002000100140C6
:1033F000301700200048004038B51F4B9842044663
:1034000012D078B103681D4A93420DD01C4A9042F5
:103410002FD01C4A93422CD01B4A944227D01B4ADF
:10342000934224D0012038BD194D95F80B3303F099
:10343000FF00D3B9A5F804034FF48072A5F8060382
:10344000291DA5F8080385F80A03204602F0C2F9F1
:103450000028E8D1012385F80B33E36B2BB11A6800
:10346000136823F00803136038BD002038BD094DF0
:10347000DBE7094DD9E700BFA0160020001001408E
:10348000E8160020004400403017002000480040AB
:1034900038000020540600204803002038B5124CA4
:1034A00094F80B330BB1002038BD104D03F0FF0032
:1034B000A4F804034FF48072A4F80603211DA4F8B5
:1034C000080384F80A03284602F084F90028EBD1A7
:1034D000EB6B012284F80B23002BE4D01A681368ED
:1034E00023F00803136038BD38000020A016002028
:1034F00070B51546FFF702FF00283AD00E460029A6
:1035000037D090F80B3304461BBB95B306F1FF3C54
:103510000020B4F80813B4F8063389B29BB299427C
:1035200000F1010214D0B4F8083314FA83F390B216
:1035300093F804310CF8013FB4F8083301339BB21F
:10354000B3F5007F28BF00238542A4F80833E0D1FB
:1035500070BD0368DB6B002BD7D01B685968C1F5C1
:10356000807189B2B1F5807F28BF0021FFF72EFE60
:10357000CBE7002070BD00BF38B50446FDF7E0F989
:1035800082B20AB9002038BD0B48214601F056FD31
:103590000028F8D100F0B2FB074D044695F8413001
:1035A000202BEFD000F0AAFB001B6328F6D90248BD
:1035B00001F08CFD032038BDA01600200E4B984270
:1035C00011D078B103680D4A93420CD00C4A904256
:1035D0000FD00C4A93420CD00B4A904206D00B4AB3
:1035E000934203D070470A48FFF7F0BD0948FFF740
:1035F000EDBD0948FFF7EABDA0160020001001400C
:10360000E816002000440040301700200048004029
:10361000380000205406002048030020054B0268B3
:103620009A4200D0704713685B06FCD50020FFF774
:103630005BBD00BF00480040154B984210B50446E2
:1036400011D078B10368134A93420CD0124A9042C9
:103650001BD0124A934218D0114A944213D0114AF7
:10366000934210D010BD104B93F80B23002AF9D0D1
:103670000022204683F80B2301F05EFD2046BDE8C2
:103680001040FFF7B9BE094BEEE7094BECE700BF6E
:10369000A016002000100140E81600200044004061
:1036A0003017002000480040380000205406002059
:1036B0004803002082B00C4B002100915A6C42F468
:1036C00080425A645A6C02F480420092009A01913E
:1036D0001A6C42F080521A641B6C03F08053019301
:1036E000019B02B0704700BF0038024070B503680C
:1036F000AA4A8EB000249342CDE90944CDE90B4497
:1037000005460D9408D0A64A934277D0A54A934225
:1037100000F0C6800EB070BDA34B00945A6CA34855
:10372000A34E42F010025A645A6C02F0100200924A
:10373000009A01941A6B42F001021A631A6B02F0AC
:1037400001020192019A02941A6B42F480021A63F8
:103750001B6B03F4800302934FF4C06302220993AE
:10376000029B0123CDE90A234FF0030C072309A98B
:10377000CDE90CC300F076FD8E4A4FF00063C6E938
:1037800000234FF48073C6E906434FF480624FF480
:1037900000333046C6E90244C6E90424C6E90834C9
:1037A00000F03CFB002840F0EC80834CDFF82CE27A
:1037B0004FF00062C4E900E240220023A2604FF40F
:1037C0008062C4E9033220464FF48032C4E90533F5
:1037D000C4E90732636200F021FB002840F0CE808C
:1037E000B5630022C5E90E4606212520A56300F039
:1037F000AFFA252000F0EAFA0EB070BD6A4B0394D0
:103800001A6C6E486E4E42F400321A641A6C02F45E
:1038100000320392039A04941A6B42F008021A636E
:103820001A6B02F008020492049A05941A6B42F48F
:1038300000121A631B6B03F400130593602302222A
:103840000993059B0123CDE90A234FF0030C0723BD
:1038500009A9CDE90CC300F005FD5A4A74624FF086
:103860000063C6E900234FF4806340223361304691
:103870004FF48033C6E90224C6E90544C6E907438C
:1038800000F0CCFA00287FD1AE630022062126206A
:10389000B56300F05DFA262000F098FA0EB070BD16
:1038A000414B06941A6C4848484E42F480221A64F0
:1038B0001A6C02F480220692069A07941A6B42F060
:1038C00002021A631A6B02F002020792079A089426
:1038D0001A6B42F400121A631B6B03F40013089373
:1038E0004FF4406309934FF0020C089B0123CDE98C
:1038F0000AC34FF0030E072309A9CDE90CE300F03A
:10390000B1FC334A4FF00063C6E900234FF48073E3
:10391000C6E906434FF480624FF400333046C6E9EF
:103920000244C6E90424C6E9083400F077FA88BBEB
:10393000284C29494FF00062C4E9001240220023BC
:10394000A2604FF48062C4E9033220464FF4803213
:10395000C4E90533C4E90732636200F05FFAB0B925
:10396000B5630022C5E90E4606212720A56300F0B5
:10397000EFF9272000F02AFA0EB070BDFEF742FCE6
:103980002EE7FEF73FFC10E7FEF73CFC7CE7FEF776
:1039900039FCE5E7FEF736FCCAE700BF001001403E
:1039A000004400400048004000380240000002404F
:1039B0006014002040640240C0140020000C02404B
:1039C00020150020A0600240000402408015002065
:1039D00028600240E015002058600240B8640240B0
:1039E00030B502682E498BB000238A42CDE90533F9
:1039F000CDE90733099304D02A498A422DD00BB070
:103A000030BD294A0193516C284841F480515164DA
:103A1000516C01F48051019101990293136B43F0B1
:103A200001031363136B03F0010302932022029B33
:103A3000059205A9032205230224CDE90823CDE937
:103A4000064400F00FFCC02201231848059205A986
:103A5000079300F007FC0BB030BD134A0393116CC1
:103A600041F480411164106C00F48040039003988D
:103A70000493136B0E48022423431363136B0694C1
:103A800023400493032205234FF4204505A90595FF
:103A9000CDE90823049D00F0E5FB0BB030BD00BF6D
:103AA0000030014000380040003802400000024071
:103AB00000040240704700BF704700BFFEE700BF30
:103AC000FEE700BFFEE700BFFEE700BF08B500F05D
:103AD00009F902F007FC012800D108BDBDE8084043
:103AE00003F052B8014800F0CBBA00BF80150020A7
:103AF000014800F0C5BA00BFE0150020014800F001
:103B0000BFBA00BF00140020014800F0B9BA00BFDE
:103B100020150020014800F0B3BA00BFA013002018
:103B2000014800F0ADBA00BF60140020014800F069
:103B3000A7BA00BFC0140020014801F081BC00BF3B
:103B4000A0160020014801F07BBC00BFE816002051
:103B5000014801F075BC00BF3017002001207047FC
:103B600008B503F0D9F9162303604FF0FF3008BD04
:103B700008B503F0D1F916230360FEE770B5161EF1
:103B800007DD0C468D19AFF3008004F8010BA54248
:103B9000F9D1304670BD00BF70B5161E07DD0C466A
:103BA0008D1914F8010BAFF30080A542F9D130460E
:103BB00070BD00BF4FF0FF30704700BF4FF400539F
:103BC0004B600020704700BF012070470020704705
:103BD00010B50C4C0C4B0D492268591A2AB11044EF
:103BE000884207D82060104610BD094A2260104460
:103BF0008842F7D903F090F90C234FF0FF320360AD
:103C0000104610BD781700200000022000040000BC
:103C1000508900200D48854601F00AFE0C480D49E8
:103C20000D4A002302E0D458C4500433C4188C4217
:103C3000F9D30A4A0A4C002301E013600432A2427D
:103C4000FBD303F06FF9FDF7CFFBFEE70000022086
:103C50000000002028130020E0D9000828130020CD
:103C60004C890020FEE7000038B50E4A0E4B127852
:103C70001B6805464FF47A70B0FBF2F0B3FBF0F02E
:103C800000F0B2F808B90F2D01D9012038BD044663
:103C9000024629464FF0FF3000F05AF8034B204609
:103CA0001D6038BD640900206C09002068090020EF
:103CB00008B50B4B1A6842F400721A601A6842F495
:103CC00080621A601A6842F480721A60032000F061
:103CD0002DF80F20FFF7C8FFFFF7ECFC002008BD10
:103CE000003C0240034A044B11681B780B441360EC
:103CF000704700BF7C17002064090020014B186842
:103D0000704700BF7C17002038B50446FFF7F6FF68
:103D1000631C054602D0044B1B781C44FFF7EEFFE2
:103D2000431BA342FAD338BD640900200749CA687F
:103D300003024FF6FF0003F4E0630240134343F035
:103D4000BF6343F40033CB60704700BF00ED00E079
:103D50001C4BDB68C3F3022300B5C3F1070EBEF1B1
:103D6000040F03F1040C28BF4FF0040EBCF1060F42
:103D70001BD9033B4FF0FF3C0CFA03FC22EA0C0278
:103D80004FF0FF3C0CFA0EFC21EA0C019940002890
:103D900041EA02010CDB00F16040090100F56140DD
:103DA000C9B280F800135DF804FB00221346E7E770
:103DB000054B00F00F0009010344C9B219765DF804
:103DC00004FB00BF00ED00E0FCEC00E0002808DB95
:103DD000044A4109012300F01F0003FA00F042F8F1
:103DE0002100704700E100E00138B0F1807F10D27F
:103DF00010B44FF0E023084C58614FF0F00C84F8F9
:103E000023C00022072110469A615DF8044B196116
:103E100070470120704700BF00ED00E038B5044650
:103E2000FFF76CFF002C67D023680022022184F882
:103E3000351084F834201A6822F0010205461A6011
:103E400005E0FFF75BFF431B052B39D823681A6891
:103E5000D107F6D4D4E90120E16802430A43D4E94A
:103E60000451A0692A430A43E1691D6802430A43D9
:103E700033492940256A2A430A43616A042926D026
:103E80001A605A6922F007021143D8B22D4A5961CB
:103E90001038A2FB005212092B4923F47F73895C6E
:103EA000E16523F003035F2888BF04333F228A4083
:103EB000A36500209A600123606584F8353038BD21
:103EC00003232022626584F83530184638BDD4E9D2
:103ED0000B5129430A431A605969A26A21F007016C
:103EE000114341F00401002DCFD038B9012A23D06D
:103EF00032F00202C9D108E0012038BDB0F5005F00
:103F00000CD0022A03D9032ABFD1EA01BDD501236F
:103F10004022626584F83530184638BD032AB4D88B
:103F200001A050F822F000BF0F3F00080B3F00082F
:103F30000F3F0008393F0008B5F1C07FA5D1E6E783
:103F40003F8010F0ABAAAAAAA0D5000870B490F8E0
:103F50003440856D012C35D090F835404FF0010C80
:103F6000644580F834C005D0002380F8343070BC3C
:103F700002207047022680F83560046800264665F6
:103F8000266826F48026266063608368402B0EBF77
:103F9000A260A160E260C26D08BFE1603F23934070
:103FA000AB602368026C43F0160323601AB12368E8
:103FB00043F008032360236843F0010300202360DB
:103FC00070BC7047022070BC704700BF70B50446DB
:103FD000866DFFF793FE94F83530022B06D0002350
:103FE000802284F834306265012070BD23681A682D
:103FF00022F016021A605A6922F080025A61226C7D
:10400000054632B31A6822F008021A601A6822F0D4
:1040100001021A6005E0FFF771FE431B052B0FD864
:1040200023681B6813F00103F5D1E16D3F228A403C
:104030000121B26084F8351084F83430184670BD20
:10404000032020220023626584F8343084F8350090
:1040500070BDA26C002AD5D1D8E700BF90F83530EA
:10406000022B03D08023436501207047026805239B
:1040700080F83530136823F0010300201360704787
:104080002DE9F04182B0744A866D156800230193D2
:10409000C36D346808229A402242804604D00168E9
:1040A0000F68780700F18A8001229A40224204D0EA
:1040B000D8F800104969090678D404229A402242AF
:1040C00004D0D8F8001009688F0767D410229A40EE
:1040D000224204D0D8F800100F68380749D42022B3
:1040E0009A40224217D0D8F800100C68E00612D58A
:1040F000B26098F83520052A73D00B6813F4802F2E
:104100000B6800F09080190340F19B80D8F83C3098
:104110000BB140469847D8F854303BB3D8F85430E8
:10412000DA071BD5D8F800204C49052388F835302C
:104130001368A1FB051523F00103AD0A136002E02B
:104140001368DB0704D5019B0133AB420193F7D918
:104150000122002388F8352088F83430D8F84C3014
:1041600023B1404602B0BDE8F041184702B0BDE8B7
:10417000F081B2600A6812F4802F0A682AD1D7054C
:1041800003D40A6822F008020A60D8F84020002A06
:10419000A5D040469047D8F85C30A0E7B260D8F888
:1041A000542042F00402C8F854208FE7B260D8F8D7
:1041B000542042F00202C8F854207EE70F6827F02E
:1041C00004070F60B260D8F8542042F00102C8F82A
:1041D000542069E71203D8D5D8F84820002AD8D14E
:1041E0007DE70A6822F016020A604A6922F080021E
:1041F0004A61D8F8402052B30A6822F008020A60E7
:104200003F2202FA03F3D8F85010B36001220023D2
:1042100088F8352088F834300029A7D0404602B00D
:10422000BDE8F041084713F480737FF46FAF0A686C
:1042300022F010020A60012288F8352088F8343014
:1042400064E7D8F84430002B7FF463AF63E7D8F815
:104250004820002AD0D1D3E76C090020B5814E1B3D
:10426000406D70472DE9F04F00220C68DFF82CA25A
:10427000834E85B01346894605E00133102B02F1C9
:10428000020200F089800121994001EA040BA14358
:10429000F3D1D9F804C00CF003014D1E012D7ED9D5
:1042A000032940F0BE809140CD4307683D4029433B
:1042B0001CF4403F0160E0D000210391DAF8441083
:1042C00041F48041CAF84410DAF8441001F4804106
:1042D0000391039923F0030101F1804101F59C3121
:1042E00003F00307D1F808E0BF000F25BD402EEA18
:1042F0000508644DA84224D005F58065A84200F069
:104300009480614DA84200F09780604DA84200F073
:104310009A805F4DA84200F09D805E4DA84200F05B
:10432000A0805D4DA84200F0A380DFF874E17045E5
:104330000CBF4FF0070E4FF0080E0EFA07F748EAD1
:104340000708C1F80880B1686FEA0B071CF4801FEA
:104350000CBF39404BEA0101B160F5681CF4001F45
:104360000CBF3D404BEA0505F56075681CF4003F45
:104370000CBF3D404BEA0505756031681CF4803F79
:1043800003F101030CBF39404BEA0101102B3160EE
:1043900002F102027FF477AF05B0BDE8F08FD9F8E3
:1043A0000C50876805FA02F8032505FA02FE27EA91
:1043B0000E0748EA0707876047686FEA0E0527EA95
:1043C0000B0ECCF300179F4047EA0E074760C76803
:1043D00007EA050ED9F80870974047EA0E07022948
:1043E000C76001FA02F17FF460AF4FEAD30E00EB31
:1043F0008E0E03F00708DEF820700097D9F81070D1
:104400004FEA880807FA08F701970F2707FA08F814
:10441000009F27EA0808019F47EA0807CEF82070A6
:1044200043E703259540ED43D1E74FF0010E0EFA27
:1044300007F748EA070884E74FF0020E0EFA07F77D
:1044400048EA07087DE74FF0030E0EFA07F748EA3F
:10445000070876E74FF0040E0EFA07F748EA070858
:104460006FE74FF0050E0EFA07F748EA070868E70E
:104470004FF0060E0EFA07F748EA070861E700BF9B
:10448000003C01400000024000080240000C0240D5
:1044900000100240001402400018024000380240A0
:1044A000001C02400369194214BF0120002070471C
:1044B00002B9090481617047436901EA030221EAF4
:1044C000030141EA02418161704700BF002800F00A
:1044D000A2812DE9F0410368DD0782B004462FD5A3
:1044E0009E498A6802F00C02042A00F0ED808A6876
:1044F00002F00C02082A00F0E3806368B3F5803F05
:1045000000F0EC80B3F5A02F00F07581934D2A6880
:1045100022F480322A602A6822F480222A60002B4A
:1045200040F0E180FFF7EAFB064605E0FFF7E6FB17
:10453000801B642800F201812B689B03F6D423685A
:104540009F0728D5854A916811F00C0F00F09080E4
:10455000916801F00C01082900F08680E368002BC7
:1045600000F00E817E4B7D4E01221A60FFF7C6FBE4
:10457000054605E0FFF7C2FB401B022800F2DD8084
:1045800033689807F6D53368226923F0F80343EAC5
:10459000C203336023681A0751D458072FD56F4AD6
:1045A000136C13F080537FD000256E4E3368D9050D
:1045B00040F1B380A368012B00F0C380052B00F00D
:1045C0002C81664E326F22F001023267326F22F088
:1045D00004023267002B40F0B980FFF78FFB41F2F5
:1045E0008838074605E0FFF789FBC01B404500F20D
:1045F000A480336F9807F6D4002D40F00681A0699F
:10460000C8B1564DAB6803F00C03082B00F0C9800D
:10461000534B002202281A6600F00981FFF76EFB57
:10462000044605E0FFF76AFB001B022800F28580C4
:104630002B689B01F6D4002002B0BDE8F0816369CD
:104640000BB3474B454E0122C3F8802EFFF756FBB4
:10465000054604E0FFF752FB401B02286DD8736F3C
:104660009B07F7D5236898E7526856023FF576AF67
:104670003A4A1268950744D5E268012A41D00120E0
:1046800002B0BDE8F081364A344EC2F8803EFFF7F2
:1046900035FB054604E0FFF731FB401B02284CD8F0
:1046A000736F9F07F7D4DDE70193136C43F08053DA
:1046B0001364136C03F080530193019B012574E78D
:1046C0004A6850027FF519AF244A126891037FF5BA
:1046D00037AF6268002A7FF433AFD0E71F4A136810
:1046E00043F480331360FFF709FB1C4E054604E0DA
:1046F000FFF704FB401B64281FD833689A03F7D5E3
:104700001DE7164920690A6822F0F80242EAC00251
:104710000A601A077FF541AF91E7336843F480736D
:104720003360FFF7EBFA07463368DA053FF542AF2F
:10473000FFF7E4FAC01B0228F6D9032002B0BDE857
:10474000F081064A136F43F001031367FFF7D6FAAF
:10475000024F064641F288380BE000BF00380240A5
:104760000000474200700040FFF7C8FA801B404538
:10477000E3D83B6F9B07F7D5002D3FF440AF44E0F3
:10478000424A434E1360FFF7B9FA054604E0FFF7CB
:10479000B5FA401B0228D0D833689907F7D42368AC
:1047A000F9E601283FF448AF6B68E26903F4800141
:1047B00091427FF464AF226A03F03F0191427FF49B
:1047C0005EAF616A47F6C0721A40B2EB811F7FF498
:1047D00056AFA26A520803F44031013AB1EB024FDE
:1047E0007FF44DAFE26A03F07063B3EB026F14BF66
:1047F0000120002020E7264B1A6842F480221A602C
:104800001A6842F480321A606DE7214A136C23F073
:1048100080531364F3E6012070471D4B1A6F42F07A
:1048200004021A671A6F42F001021A678EE7FFF757
:1048300065FA064605E0FFF761FA801B02283FF69D
:104840007CAF2B689901F6D4D4E90731626A0B4337
:1048500043EA8213D4E90A21520843EA0163013A88
:104860000A4943EA024301226B600A66FFF746FAEF
:10487000074D044605E0FFF741FA001B02283FF60A
:104880005CAF2B689A01F6D5D5E600BF0000474221
:1048900000380240164908B58B6803F00C03042B5E
:1048A0001BD0082B17D14A684B68496813F4800362
:1048B00002F03F0213D10F48C1F38811A1FB0001A0
:1048C000FBF79EFC0A4B5B68C3F3014301335B00BB
:1048D000B0FBF3F008BD074808BD074808BD06480F
:1048E000C1F388110023A1FB0001FBF789FCE9E774
:1048F000003802400024F40040787D01002800F0D8
:104900008780484A136803F007038B422DE9F04182
:104910000D46044609D2CBB21370136803F00703A7
:104920008B4202D00120BDE8F0812368980714D59E
:10493000590704D53C498A6842F4E0528A601A0754
:1049400004D539498A6842F460428A603649A068D1
:104950008A6822F0F00202438A60DF0721D562688C
:10496000012A57D0931E012B2F4B1B684DD9990755
:10497000D8D52D4EB36823F003031343B360FFF77C
:10498000BDF941F28838074604E0FFF7B7F9C01BCC
:10499000404544D8B368626803F00C03B3EB820F60
:1049A000F3D1204A136803F00703AB4206D9EBB2F8
:1049B0001370136803F00703AB42B3D123685A079F
:1049C00006D51949E0688A6822F4E05202438A60F9
:1049D0001B0707D5144A2169936823F4604343EA0F
:1049E000C1039360FFF756FF0F4A104C92681049BD
:1049F000C2F303120346A25C0E48D34000680B606A
:104A0000FFF732F90020BDE8F0819801B1D489E7C1
:104A100001207047044B1B689E03AAD482E7032041
:104A200081E700BF003C024000380240A8D50008E2
:104A30006C09002068090020044B05499B68054A61
:104A40000868C3F38223D35CD84070470038024023
:104A50006C090020B8D50008044B05499B68054A3D
:104A60000868C3F34233D35CD84070470038024033
:104A70006C090020B8D500082DE9F04782B01D462A
:104A80000A9C0F4616468046FFF738F92C44A4EBE3
:104A90000009FFF733F92A4B1B68C3F3CB3309FB3B
:104AA00003F382460193D8F8003001E06A1C0DD16F
:104AB0009C6837EA04020CBF4FF0010C4FF0000C69
:104AC000B445F3D1002002B0BDE8F087FFF716F936
:104AD000A0EB0A00484503D2019BFBB99946E2E7E7
:104AE000D8E900315A68B1F5827F22F0E0025A60BD
:104AF00018D0D8F82820B2F5005F07D11A6822F440
:104B000000521A601A6842F400521A60012200230F
:104B100088F8512088F850300320D4E7019B013BEE
:104B20000193C0E7D8F80820B2F5004F02D0B2F5E3
:104B3000806FDED11A6822F040021A60D9E700BF08
:104B40006C0900202DE9F04184B088461746009298
:104B50000B46012202210446FFF78EFF38BB184A9C
:104B60001568184AA2FB05356D0D4FF47A7202FBE9
:104B700005F562680395B2F5827F064607D10DE020
:104B8000039B2168013B03938B681B0602D5039BA3
:104B9000002BF5D1304604B0BDE8F0810246009705
:104BA000434680212046FFF767FF0028F2D0636D5F
:104BB000032643F020033046636504B0BDE8F0816E
:104BC0006C090020819F5E1600285CD0416A70B598
:104BD0000446002947D00023C0E9043394F851204B
:104BE0000023A36202F0FF00002A42D09C46256801
:104BF000A268022384F851302B6823F040032B6015
:104C0000636802F4044203F482731343E26802F41B
:104C100000621343226902F002021343626902F048
:104C200001021A43E36901F0100003F03806A1699C
:104C3000236A03F0800E01F4007313433343090C1D
:104C400043EA0E0301F0040143EA0C0301432B6025
:104C50006960EB69002023F400630122EB61606569
:104C600084F8512070BD4368B3F5827FB6D0C1612E
:104C7000B4E784F850002046FEF7B2FED4E90913E9
:104C800003F4005CB3E70120704700BF2DE9F04357
:104C9000044683B091461F460A9D8846FFF72EF8CA
:104CA00094F851306268012B064608D0B2F5827F35
:104CB00079D1D9B2A368002B75D1042973D1B8F189
:104CC000000F74D0B9F1000F71D0002F6FD094F89D
:104CD0005030012B67D094F85130C4F83890042B31
:104CE0001CBF052384F85130002363650121C4E90A
:104CF00010332368E78784F85010E7861968A78780
:104D00004906C4F83080A78603D4196841F04001F1
:104D10001960E168B1F5006F4DD0002A00F089807C
:104D2000012F00F086800127E38E9BB223B9E38F29
:104D30009BB2002B00F08C802268936899070FD5F6
:104D4000E38E9BB263B15FB1236B1B781373E38E69
:104D5000226B013B01329BB222632268E38600276B
:104D6000936813F001030DD0E18F89B251B11F4652
:104D7000A36BD2681A70A36B0133A363E38F013B6B
:104D80009BB2E387FEF7BAFF801BA8425CD36B1C83
:104D9000CAD001220023032084F8512084F8503027
:104DA00003B0BDE8F083022003B0BDE8F08301202A
:104DB00003B0BDE8F083002A64D1414631F8022BEC
:104DC000DA60E38E2163013B9BB2E3860127E38E29
:104DD0009BB21BB9E38F9BB2002B39D0226893683A
:104DE0009B070DD5E38E9BB253B14FB1236B33F8C4
:104DF000021BD1602363E38E013B9BB20027E38655
:104E0000936813F001030CD0E18F89B249B11F46BA
:104E1000A36BD26823F8022BA363E38F013B9BB201
:104E2000E387FEF76BFF801BA842D0D3681CCED06F
:104E3000AFE798F800201A73E38E226B013B013232
:104E40009BB22263E3866EE7002D7FF46DAFA0E78F
:104E5000324629462046FFF775FEB0B9A36833B93C
:104E600022680193D368019393680193019B012306
:104E700084F85130606D0023C01A84F8503018BF98
:104E8000012091E7012FA1D197E72022002362653D
:104E900084F85030012087E7026802F10C0353E8E0
:104EA000003F23F4907302F10C0C4CE80031002910
:104EB000F3D102F1140353E8003F23F0010302F1A0
:104EC000140C4CE800310029F3D1036B012B05D001
:104ED0002022002380F842200363704702F10C0374
:104EE00053E8003F23F0100302F10C0C4CE80031B2
:104EF0000029F3D1ECE700BF0268116938B5044618
:104F0000C068A36821F44051014320691161034343
:104F10006069D1680343E06921F4164121F00C0176
:104F200003430B43D3605369A069284923F44073BA
:104F300003438A42536129D0254B9A4226D0FFF77A
:104F40007BFDE369B3F5004F26D16268214D9218CD
:104F50004FF019014FF000035B41A0FB0101FBF78B
:104F60004FF9A5FB00325109642303FB1103DB0059
:104F70003233A5FB0323C3F342121B09246802EB5F
:104F8000011203F4F8731344A36038BDFFF764FD06
:104F9000E369B3F5004FD8D0636819219A00A0FBEC
:104FA00001019B0FFBF72CF90A4AA2FB00135B09D6
:104FB0002168642404FB130000013230A2FB0020AE
:104FC0001B0103EB5010886038BD00BF001001408A
:104FD000001401401F85EB5170B310B590F84130BB
:104FE000044603F0FF0213B32268242384F84130FF
:104FF000D36823F400532046D360FFF77DFF236876
:10500000196921F490411961596921F02A01596106
:10501000D96800224FF0200C41F40051D96062643D
:1050200084F841C084F842C01046626310BD80F825
:105030004020FEF75BFBD7E7012070472DE9F041E8
:10504000044690F84100202830D101B112B9012066
:10505000BDE8F081E284A284DFF868E0DFF868C090
:10506000174F2162C5B21346A06B226800264FF08D
:1050700021086664043284F84180C0E90FECC0E97D
:105080001376FEF763FFA0B922686FF04003136048
:1050900002F1140353E8003F43F0800302F11404CB
:1050A00044E800310029F3D1BDE8F0810220BDE8D9
:1050B000F0811023636484F841500120BDE8F08141
:1050C00045520008E151000831520008026810B54D
:1050D000044602F10C0353E8003F23F0C00302F141
:1050E0000C0040E800310029F3D153691B0605D4B8
:1050F00000202023E08484F8413010BD02F1140325
:1051000053E8003F23F0800302F1140040E800312F
:105110000029F3D1A06B0028EAD00165FEF756FF05
:105120000028E5D0A06BFFF79BF82028E0D11023E2
:105130006364032010BD00BF036810B5044603F18B
:105140000C0252E8002F22F4907203F10C0040E8A8
:1051500000210029F3D103F1140252E8002F22F0BC
:10516000010203F1140040E800210029F3D1226B71
:10517000012A27D05A69520607D400232022E3854A
:1051800084F842201846236310BD03F1140252E84C
:10519000002F22F0400203F1140040E80021002912
:1051A000F3D1E06B0028E8D00165FEF70FFF00287F
:1051B000E3D0E06BFFF754F82028DED110236364BE
:1051C000032010BD03F10C0252E8002F22F0100260
:1051D00003F10C0040E800210029F3D1CAE700BF29
:1051E00008B50368806B1B6813F480731AD10268DA
:1051F000C38402F1140353E8003F23F0800302F15B
:10520000140040E800310029F3D102F10C0353E807
:10521000003F43F0400302F10C0040E80031002958
:10522000F3D108BDFEF7FAF908BD00BF704700BF13
:1052300008B5806BFFF7FAFF08BD00BF704700BFDD
:10524000704700BF08B5806B0268516990F8413023
:10525000212B0BD0526990F84230222B1ED0436C88
:1052600043F010034364FEF7E7F908BD0906F1D5E2
:105270000023C38402F10C0353E8003F23F0C00372
:1052800002F10C0C4CE800310029F3D1202380F806
:105290004130526990F84230222BE0D15306DED5DE
:1052A0000023C385FFF7F8FDD9E700BF08B5806B81
:1052B0000023C385FEF7C0F908BD00BF806B08B5A9
:1052C00001234363036B012B02D0FFF7B9FF08BD35
:1052D000818D4908FEF772F908BD00BF08B5036863
:1052E000806B1A6812F480722BD10368C28503F1B7
:1052F0000C0252E8002F22F4807203F10C0C4CE8EF
:1053000000210029F3D103F1140252E8002F22F00A
:10531000010203F1140C4CE800210029F3D103F140
:10532000140252E8002F22F0400203F1140C4CE862
:1053300000210029F3D1202280F84220026B012AAB
:1053400007D000234363036B012B0FD0FFF776FFD9
:1053500008BD03F10C0252E8002F22F0100203F105
:105360000C0C4CE800210029F3D1EAE7818DFEF70F
:1053700025F908BD8368B3F5805F45D0826A002BAC
:105380003AD003685B6803F07F031370836A0133CC
:105390008362C38D013B9BB2C385002B33D102686E
:1053A000D16821F0200100B5D160D16821F480716D
:1053B000D16051694FF0200C21F00101516180F85A
:1053C00042C04363016B012983B028D1036302F11A
:1053D0000C0353E8003F23F0100302F10C0C4CE8DF
:1053E00000310029F3D11368DB0622D4818DFEF74A
:1053F000E5F803B05DF804FB0369002BC1D1036835
:105400005B681370C2E7704703696BB90268836A0F
:105410005268C2F3080223F8022B8362B9E7FFF750
:105420000DFF03B05DF804FB0368826A5B681370CC
:10543000ACE701911368019353680193019BD5E791
:1054400070B503681A68D9685E6912F00F0F82B0F0
:1054500004461D4672D1930602D58E0600F1D8800F
:10546000236B012B0BD0160602D5080600F1A6808F
:10547000520602D54B0600F1C08002B070BDD606C0
:10548000F1D5C806EFD5002301932B6801936B6813
:105490000193019B6B695B0640F1E980E06B036857
:1054A0005968A38D89B2002900F026818B4240F211
:1054B0002381C269E185B2F5807F36D005F10C0306
:1054C00053E8003F23F4807305F10C0141E80032FA
:1054D000002AF3D105F1140353E8003F23F0010340
:1054E00005F1140141E80032002AF3D105F114035B
:1054F00053E8003F23F0400305F1140141E8003276
:10550000002AF3D1202384F84230226305F10C03F2
:1055100053E8003F23F0100305F10C0141E800328D
:10552000002AF3D1FEF752FDA38D02226263E28DC1
:105530009B1A204699B2FEF741F89EE706F0010655
:1055400001F4907030438BD0D00705D5CD0503D53D
:10555000606C40F001006064500726D52EB1606C8D
:10556000950740F00200606423D4150707D501F0C9
:105570002000304303D0606C40F008006064606C31
:1055800000283FF47AAF900602D58A0600F1AA807F
:105590005B69656C03F0400305F008051D43204678
:1055A00040D1FEF749F8656467E79007DDD5002E26
:1055B000DBD0606C40F004006064D6E794F84130C2
:1055C000212B7FF45AAFA368B3F5805F00F09D8074
:1055D000236A5A1C22621B786B60E38C013B9BB2EE
:1055E000E384002B7FF449AFEB6823F08003EB608A
:1055F000EB6843F04003EB603FE7EB68202223F0C9
:105600004003EB60204684F84120FEF707F834E7BA
:1056100090F84230222B7FF430AF02B0BDE87040EA
:10562000FFF7A8BEFFF738FC25686B695B061AD543
:1056300005F1140353E8003F23F0400305F1140182
:1056400041E80032002AF3D1E06B60B1354B0365CD
:10565000FEF704FD00283FF410AFE06B036D02B0CD
:10566000BDE8704018472046FDF7E6FF05E7E28DEC
:10567000E38D9BB292B2002B3FF4FFAEA18D8A1A4C
:1056800091B200293FF4F9AE05F10C0353E8003F55
:1056900023F4907305F10C0040E80032002AF3D1A6
:1056A00005F1140353E8003F23F0010305F1140052
:1056B00040E80032002AF3D1202384F842302263EC
:1056C00005F10C0353E8003F23F0100305F10C0033
:1056D00040E80032002AF3D1022363632046FDF73D
:1056E0006DFFCAE694F84220222A7FF451AF20468B
:1056F000FFF740FE23684BE799427FF4BEAEC369D3
:10570000B3F5807F7FF4B9AEE6E72369002B7FF421
:105710005FAF236A33F8022BC2F308026A60236288
:105720005BE700BFAD52000830B5044600232220DD
:105730006364256884F84200E06BA162A28503657A
:1057400013460A46291D204DC563204D0564204D92
:10575000C56483B0FEF7FAFB70BB236801901A683A
:10576000019259682269019101995AB103F10C0221
:1057700052E8002F42F4807203F10C0444E8002147
:105780000029F3D103F1140252E8002F42F0010284
:1057900003F1140444E800210029F3D103F11402B9
:1057A00052E8002F42F0400203F1140444E80021C3
:1057B0000029F3D103B030BD102220230120626400
:1057C00084F8423003B030BDDD520008BD520008FD
:1057D0004552000890F842C0BCF1200F06D129B311
:1057E00030B583B022B9012003B030BD022070472C
:1057F00001230446002503634563FFF795FF236BF0
:10580000012BF0D12268019513680193536801932D
:10581000019B02F10C0353E8003F43F0100302F137
:105820000C0444E800310029F3D1DDE70120704782
:10583000034AD2F8883043F47003C2F888307047C6
:1058400000ED00E02DE9F843244A254C254B264E77
:105850002468D2F80080D3F8009005463068043000
:105860000F4600F029FF48B933682049DA6A01235E
:1058700003FA02F20B6823EA02030B606B1C15D0DB
:105880003368316864195C600AD24046043100F024
:10589000FBFE174B1A68A24288BF1C60BDE8F88364
:1058A00048460431BDE8F84300F0EEBE002FE7D0D3
:1058B000104B30685A68316882609068C8603168FF
:1058C00090680431416030681968346804300131EF
:1058D000906019606361BDE8F88300BF8417002001
:1058E0007C18002088170020801700200018002056
:1058F0003018002054180020204B10B50022204CF6
:105900001A6021682268236812681B6B9A4204D9C6
:105910000B6B1A68B2F1A53F22D0216820683431A0
:10592000FCF78AF8174B1B68B3FA83F3DBB2C3F1B9
:105930001F0303EB8303144A990002EB83035058BF
:1059400008B972B6FEE758680831406858600A44E2
:10595000904204BFD8685860C3682360236810BDB4
:105960005A68B2F1A53FD8D19A68B2F1A53FD4D117
:10597000DB68B3F1A53FD0D1D4E700BF8018002089
:1059800080170020001800208C170020F8B50F4D5C
:105990002B68CBB10E4F0F4E01F09EF8FB68DC6810
:1059A000201D00F089FE3368013B33602B68013B0A
:1059B0002B6001F0ABF8206B01F044FA204601F0B7
:1059C00041FA2B68002BE7D1F8BD00BFF417002087
:1059D00068180020F017002008B5094C4FF0E026A9
:1059E0004FF08055FFF7D2FF2368012B05D9C6F889
:1059F000045DBFF34F8FBFF36F8FFCF71FF8F1E724
:105A00008C1700202DE9F04F5B4B1C68013483B0EC
:105A10001C60002C00F08780584B0193019B1B6891
:105A20009C4267D3DFF864E1DEF800301B68002B8E
:105A30007FD05348DFF860B1524D4FF0000CA246C2
:105A40004AE0D3E902285969C2F80880C8F804205E
:105A50004A68A2420A6808BFC1F804800026013AD9
:105A60005E610A60996A79B1D3E907824E68C8F825
:105A700008201A6ABE42C2F8048008BF4A600022A9
:105A80009A620A68013A0A60DA6AD5F8009002EB75
:105A90008207012100EB8708914041EA0901296052
:105AA000D8F8041099608E68DE6050F8276006F11F
:105AB00001098E6874608C60DBF80010C3F81480F4
:105AC00040F82790DEF80030C96A1B688A4288BF18
:105AD0004FF0010C002B30D0DEF80030DB68DB68C3
:105AE0005A68924503F1040403F11807A9D2019BF7
:105AF0001A6004E02248DFF8A0B04FF0000CDBF899
:105B00000030214ADB6A126803EB830350F823302C
